{
  "address": "0x27f29138978365CCc4FbCDDC4431177273fC7ABC",
  "abi": [
    {
      "inputs": [
        {
          "internalType": "contract IERC20",
          "name": "_reward",
          "type": "address"
        }
      ],
      "stateMutability": "nonpayable",
      "type": "constructor"
    },
    {
      "anonymous": false,
      "inputs": [
        {
          "indexed": true,
          "internalType": "address",
          "name": "user",
          "type": "address"
        },
        {
          "indexed": true,
          "internalType": "uint256",
          "name": "pid",
          "type": "uint256"
        },
        {
          "indexed": false,
          "internalType": "uint256",
          "name": "amount",
          "type": "uint256"
        },
        {
          "indexed": true,
          "internalType": "address",
          "name": "to",
          "type": "address"
        }
      ],
      "name": "Deposit",
      "type": "event"
    },
    {
      "anonymous": false,
      "inputs": [
        {
          "indexed": true,
          "internalType": "address",
          "name": "user",
          "type": "address"
        },
        {
          "indexed": true,
          "internalType": "uint256",
          "name": "pid",
          "type": "uint256"
        },
        {
          "indexed": false,
          "internalType": "uint256",
          "name": "amount",
          "type": "uint256"
        },
        {
          "indexed": true,
          "internalType": "address",
          "name": "to",
          "type": "address"
        }
      ],
      "name": "EmergencyWithdraw",
      "type": "event"
    },
    {
      "anonymous": false,
      "inputs": [
        {
          "indexed": true,
          "internalType": "address",
          "name": "user",
          "type": "address"
        },
        {
          "indexed": true,
          "internalType": "uint256",
          "name": "pid",
          "type": "uint256"
        },
        {
          "indexed": false,
          "internalType": "uint256",
          "name": "amount",
          "type": "uint256"
        }
      ],
      "name": "Harvest",
      "type": "event"
    },
    {
      "anonymous": false,
      "inputs": [
        {
          "indexed": true,
          "internalType": "uint256",
          "name": "pid",
          "type": "uint256"
        },
        {
          "indexed": false,
          "internalType": "uint256",
          "name": "allocPoint",
          "type": "uint256"
        },
        {
          "indexed": true,
          "internalType": "contract IERC20",
          "name": "lpToken",
          "type": "address"
        },
        {
          "indexed": true,
          "internalType": "contract IRewarder",
          "name": "rewarder",
          "type": "address"
        }
      ],
      "name": "LogPoolAddition",
      "type": "event"
    },
    {
      "anonymous": false,
      "inputs": [
        {
          "indexed": false,
          "internalType": "uint256",
          "name": "rewardPerSecond",
          "type": "uint256"
        }
      ],
      "name": "LogRewardPerSecond",
      "type": "event"
    },
    {
      "anonymous": false,
      "inputs": [
        {
          "indexed": true,
          "internalType": "uint256",
          "name": "pid",
          "type": "uint256"
        },
        {
          "indexed": false,
          "internalType": "uint256",
          "name": "allocPoint",
          "type": "uint256"
        },
        {
          "indexed": true,
          "internalType": "contract IRewarder",
          "name": "rewarder",
          "type": "address"
        },
        {
          "indexed": false,
          "internalType": "bool",
          "name": "overwrite",
          "type": "bool"
        }
      ],
      "name": "LogSetPool",
      "type": "event"
    },
    {
      "anonymous": false,
      "inputs": [
        {
          "indexed": true,
          "internalType": "uint256",
          "name": "pid",
          "type": "uint256"
        },
        {
          "indexed": false,
          "internalType": "uint64",
          "name": "lastRewardTime",
          "type": "uint64"
        },
        {
          "indexed": false,
          "internalType": "uint256",
          "name": "lpSupply",
          "type": "uint256"
        },
        {
          "indexed": false,
          "internalType": "uint256",
          "name": "accRewardPerShare",
          "type": "uint256"
        }
      ],
      "name": "LogUpdatePool",
      "type": "event"
    },
    {
      "anonymous": false,
      "inputs": [
        {
          "indexed": true,
          "internalType": "address",
          "name": "previousOwner",
          "type": "address"
        },
        {
          "indexed": true,
          "internalType": "address",
          "name": "newOwner",
          "type": "address"
        }
      ],
      "name": "OwnershipTransferred",
      "type": "event"
    },
    {
      "anonymous": false,
      "inputs": [
        {
          "indexed": true,
          "internalType": "address",
          "name": "user",
          "type": "address"
        },
        {
          "indexed": true,
          "internalType": "uint256",
          "name": "pid",
          "type": "uint256"
        },
        {
          "indexed": false,
          "internalType": "uint256",
          "name": "amount",
          "type": "uint256"
        },
        {
          "indexed": true,
          "internalType": "address",
          "name": "to",
          "type": "address"
        }
      ],
      "name": "Withdraw",
      "type": "event"
    },
    {
      "inputs": [],
      "name": "REWARD",
      "outputs": [
        {
          "internalType": "contract IERC20",
          "name": "",
          "type": "address"
        }
      ],
      "stateMutability": "view",
      "type": "function"
    },
    {
      "inputs": [
        {
          "internalType": "uint256",
          "name": "allocPoint",
          "type": "uint256"
        },
        {
          "internalType": "contract IERC20",
          "name": "_lpToken",
          "type": "address"
        },
        {
          "internalType": "contract IRewarder",
          "name": "_rewarder",
          "type": "address"
        }
      ],
      "name": "add",
      "outputs": [],
      "stateMutability": "nonpayable",
      "type": "function"
    },
    {
      "inputs": [
        {
          "internalType": "address",
          "name": "",
          "type": "address"
        }
      ],
      "name": "addedTokens",
      "outputs": [
        {
          "internalType": "bool",
          "name": "",
          "type": "bool"
        }
      ],
      "stateMutability": "view",
      "type": "function"
    },
    {
      "inputs": [
        {
          "internalType": "bytes[]",
          "name": "calls",
          "type": "bytes[]"
        },
        {
          "internalType": "bool",
          "name": "revertOnFail",
          "type": "bool"
        }
      ],
      "name": "batch",
      "outputs": [
        {
          "internalType": "bool[]",
          "name": "successes",
          "type": "bool[]"
        },
        {
          "internalType": "bytes[]",
          "name": "results",
          "type": "bytes[]"
        }
      ],
      "stateMutability": "payable",
      "type": "function"
    },
    {
      "inputs": [],
      "name": "claimOwnership",
      "outputs": [],
      "stateMutability": "nonpayable",
      "type": "function"
    },
    {
      "inputs": [
        {
          "internalType": "uint256",
          "name": "pid",
          "type": "uint256"
        },
        {
          "internalType": "uint256",
          "name": "amount",
          "type": "uint256"
        },
        {
          "internalType": "address",
          "name": "to",
          "type": "address"
        }
      ],
      "name": "deposit",
      "outputs": [],
      "stateMutability": "nonpayable",
      "type": "function"
    },
    {
      "inputs": [
        {
          "internalType": "uint256",
          "name": "pid",
          "type": "uint256"
        },
        {
          "internalType": "address",
          "name": "to",
          "type": "address"
        }
      ],
      "name": "emergencyWithdraw",
      "outputs": [],
      "stateMutability": "nonpayable",
      "type": "function"
    },
    {
      "inputs": [
        {
          "internalType": "uint256",
          "name": "pid",
          "type": "uint256"
        },
        {
          "internalType": "address",
          "name": "to",
          "type": "address"
        }
      ],
      "name": "harvest",
      "outputs": [],
      "stateMutability": "nonpayable",
      "type": "function"
    },
    {
      "inputs": [
        {
          "internalType": "uint256",
          "name": "",
          "type": "uint256"
        }
      ],
      "name": "lpToken",
      "outputs": [
        {
          "internalType": "contract IERC20",
          "name": "",
          "type": "address"
        }
      ],
      "stateMutability": "view",
      "type": "function"
    },
    {
      "inputs": [
        {
          "internalType": "uint256[]",
          "name": "pids",
          "type": "uint256[]"
        }
      ],
      "name": "massUpdatePools",
      "outputs": [],
      "stateMutability": "nonpayable",
      "type": "function"
    },
    {
      "inputs": [
        {
          "internalType": "uint256",
          "name": "_pid",
          "type": "uint256"
        }
      ],
      "name": "migrate",
      "outputs": [],
      "stateMutability": "nonpayable",
      "type": "function"
    },
    {
      "inputs": [],
      "name": "migrator",
      "outputs": [
        {
          "internalType": "contract IMigratorChef",
          "name": "",
          "type": "address"
        }
      ],
      "stateMutability": "view",
      "type": "function"
    },
    {
      "inputs": [],
      "name": "owner",
      "outputs": [
        {
          "internalType": "address",
          "name": "",
          "type": "address"
        }
      ],
      "stateMutability": "view",
      "type": "function"
    },
    {
      "inputs": [],
      "name": "pendingOwner",
      "outputs": [
        {
          "internalType": "address",
          "name": "",
          "type": "address"
        }
      ],
      "stateMutability": "view",
      "type": "function"
    },
    {
      "inputs": [
        {
          "internalType": "uint256",
          "name": "_pid",
          "type": "uint256"
        },
        {
          "internalType": "address",
          "name": "_user",
          "type": "address"
        }
      ],
      "name": "pendingReward",
      "outputs": [
        {
          "internalType": "uint256",
          "name": "pending",
          "type": "uint256"
        }
      ],
      "stateMutability": "view",
      "type": "function"
    },
    {
      "inputs": [
        {
          "internalType": "contract IERC20",
          "name": "token",
          "type": "address"
        },
        {
          "internalType": "address",
          "name": "from",
          "type": "address"
        },
        {
          "internalType": "address",
          "name": "to",
          "type": "address"
        },
        {
          "internalType": "uint256",
          "name": "amount",
          "type": "uint256"
        },
        {
          "internalType": "uint256",
          "name": "deadline",
          "type": "uint256"
        },
        {
          "internalType": "uint8",
          "name": "v",
          "type": "uint8"
        },
        {
          "internalType": "bytes32",
          "name": "r",
          "type": "bytes32"
        },
        {
          "internalType": "bytes32",
          "name": "s",
          "type": "bytes32"
        }
      ],
      "name": "permitToken",
      "outputs": [],
      "stateMutability": "nonpayable",
      "type": "function"
    },
    {
      "inputs": [
        {
          "internalType": "uint256",
          "name": "",
          "type": "uint256"
        }
      ],
      "name": "poolInfo",
      "outputs": [
        {
          "internalType": "uint128",
          "name": "accRewardPerShare",
          "type": "uint128"
        },
        {
          "internalType": "uint64",
          "name": "lastRewardTime",
          "type": "uint64"
        },
        {
          "internalType": "uint64",
          "name": "allocPoint",
          "type": "uint64"
        }
      ],
      "stateMutability": "view",
      "type": "function"
    },
    {
      "inputs": [],
      "name": "poolLength",
      "outputs": [
        {
          "internalType": "uint256",
          "name": "pools",
          "type": "uint256"
        }
      ],
      "stateMutability": "view",
      "type": "function"
    },
    {
      "inputs": [],
      "name": "rewardPerSecond",
      "outputs": [
        {
          "internalType": "uint256",
          "name": "",
          "type": "uint256"
        }
      ],
      "stateMutability": "view",
      "type": "function"
    },
    {
      "inputs": [
        {
          "internalType": "uint256",
          "name": "",
          "type": "uint256"
        }
      ],
      "name": "rewarder",
      "outputs": [
        {
          "internalType": "contract IRewarder",
          "name": "",
          "type": "address"
        }
      ],
      "stateMutability": "view",
      "type": "function"
    },
    {
      "inputs": [
        {
          "internalType": "uint256",
          "name": "_pid",
          "type": "uint256"
        },
        {
          "internalType": "uint256",
          "name": "_allocPoint",
          "type": "uint256"
        },
        {
          "internalType": "contract IRewarder",
          "name": "_rewarder",
          "type": "address"
        },
        {
          "internalType": "bool",
          "name": "overwrite",
          "type": "bool"
        }
      ],
      "name": "set",
      "outputs": [],
      "stateMutability": "nonpayable",
      "type": "function"
    },
    {
      "inputs": [
        {
          "internalType": "contract IMigratorChef",
          "name": "_migrator",
          "type": "address"
        }
      ],
      "name": "setMigrator",
      "outputs": [],
      "stateMutability": "nonpayable",
      "type": "function"
    },
    {
      "inputs": [
        {
          "internalType": "uint256",
          "name": "_rewardPerSecond",
          "type": "uint256"
        }
      ],
      "name": "setRewardPerSecond",
      "outputs": [],
      "stateMutability": "nonpayable",
      "type": "function"
    },
    {
      "inputs": [],
      "name": "totalAllocPoint",
      "outputs": [
        {
          "internalType": "uint256",
          "name": "",
          "type": "uint256"
        }
      ],
      "stateMutability": "view",
      "type": "function"
    },
    {
      "inputs": [
        {
          "internalType": "address",
          "name": "newOwner",
          "type": "address"
        },
        {
          "internalType": "bool",
          "name": "direct",
          "type": "bool"
        },
        {
          "internalType": "bool",
          "name": "renounce",
          "type": "bool"
        }
      ],
      "name": "transferOwnership",
      "outputs": [],
      "stateMutability": "nonpayable",
      "type": "function"
    },
    {
      "inputs": [
        {
          "internalType": "uint256",
          "name": "pid",
          "type": "uint256"
        }
      ],
      "name": "updatePool",
      "outputs": [
        {
          "components": [
            {
              "internalType": "uint128",
              "name": "accRewardPerShare",
              "type": "uint128"
            },
            {
              "internalType": "uint64",
              "name": "lastRewardTime",
              "type": "uint64"
            },
            {
              "internalType": "uint64",
              "name": "allocPoint",
              "type": "uint64"
            }
          ],
          "internalType": "struct MiniChefV2.PoolInfo",
          "name": "pool",
          "type": "tuple"
        }
      ],
      "stateMutability": "nonpayable",
      "type": "function"
    },
    {
      "inputs": [
        {
          "internalType": "uint256",
          "name": "",
          "type": "uint256"
        },
        {
          "internalType": "address",
          "name": "",
          "type": "address"
        }
      ],
      "name": "userInfo",
      "outputs": [
        {
          "internalType": "uint256",
          "name": "amount",
          "type": "uint256"
        },
        {
          "internalType": "int256",
          "name": "rewardDebt",
          "type": "int256"
        }
      ],
      "stateMutability": "view",
      "type": "function"
    },
    {
      "inputs": [
        {
          "internalType": "uint256",
          "name": "pid",
          "type": "uint256"
        },
        {
          "internalType": "uint256",
          "name": "amount",
          "type": "uint256"
        },
        {
          "internalType": "address",
          "name": "to",
          "type": "address"
        }
      ],
      "name": "withdraw",
      "outputs": [],
      "stateMutability": "nonpayable",
      "type": "function"
    },
    {
      "inputs": [
        {
          "internalType": "uint256",
          "name": "pid",
          "type": "uint256"
        },
        {
          "internalType": "uint256",
          "name": "amount",
          "type": "uint256"
        },
        {
          "internalType": "address",
          "name": "to",
          "type": "address"
        }
      ],
      "name": "withdrawAndHarvest",
      "outputs": [],
      "stateMutability": "nonpayable",
      "type": "function"
    }
  ],
  "transactionHash": "0x2baab19af6f188cf131e11685e4b0b2cbaa241c121b96a58e20f82630007f471",
  "args": [
    "0x8076F2AA415b1bEF34a39F6EDc6Bb3Dc1Ea33ce8"
  ],
  "solcInputHash": "5e2c35d17bb476a0423cdfc4bbc89104",
  "bytecode": "0x60a06040523480156200001157600080fd5b5060405162002d0538038062002d05833981016040819052620000349162000089565b600080546001600160a01b0319163390811782556040519091907f8be0079c531659141344cd1fd0a4f28419497f9722a3daafe3b4186f6b6457e0908290a360601b6001600160601b031916608052620000b9565b6000602082840312156200009b578081fd5b81516001600160a01b0381168114620000b2578182fd5b9392505050565b60805160601c612c24620000e1600039806108cd52806119c25280611ab25250612c246000f3fe6080604052600436106101c25760003560e01c806379d12ffb116100f757806393f1a40b11610095578063cab34c0811610064578063cab34c0814610501578063d1abb90714610516578063d2423b5114610536578063e30c397814610557576101c2565b806393f1a40b1461047357806398969e82146104a1578063ab7de098146104c1578063c346253d146104e1576101c2565b806388bba42f116100d157806388bba42f146104095780638da5cb5b146104295780638dbdbe6d1461043e5780638f10369a1461045e576101c2565b806379d12ffb146103a75780637c516e94146103d45780637cd07e47146103f4576101c2565b80632f940c701161016457806351eb05a61161013e57806351eb05a61461030d57806357a5b58c1461033a57806366da58151461035a57806378ed5d1f1461037a576101c2565b80632f940c70146102b8578063454b0608146102d85780634e71e0c8146102f8576101c2565b80631526fe27116101a05780631526fe271461023457806317caf6f11461026357806318fccc761461027857806323cf311814610298576101c2565b8063078dfbe7146101c7578063081e3eda146101e95780630ad58d2f14610214575b600080fd5b3480156101d357600080fd5b506101e76101e2366004612236565b61056c565b005b3480156101f557600080fd5b506101fe61065b565b60405161020b9190612ad8565b60405180910390f35b34801561022057600080fd5b506101e761022f3660046124f6565b610661565b34801561024057600080fd5b5061025461024f366004612461565b6107f1565b60405161020b93929190612aae565b34801561026f57600080fd5b506101fe610833565b34801561028457600080fd5b506101e7610293366004612491565b610839565b3480156102a457600080fd5b506101e76102b336600461221a565b6109d3565b3480156102c457600080fd5b506101e76102d3366004612491565b610a1f565b3480156102e457600080fd5b506101e76102f3366004612461565b610b40565b34801561030457600080fd5b506101e7610dec565b34801561031957600080fd5b5061032d610328366004612461565b610e79565b60405161020b9190612a75565b34801561034657600080fd5b506101e76103553660046122c9565b611103565b34801561036657600080fd5b506101e7610375366004612461565b611139565b34801561038657600080fd5b5061039a610395366004612461565b6111a3565b60405161020b91906125c4565b3480156103b357600080fd5b506103c76103c236600461221a565b6111ca565b60405161020b91906126f0565b3480156103e057600080fd5b506101e76103ef366004612340565b6111df565b34801561040057600080fd5b5061039a611253565b34801561041557600080fd5b506101e7610424366004612523565b611262565b34801561043557600080fd5b5061039a6113cf565b34801561044a57600080fd5b506101e76104593660046124f6565b6113de565b34801561046a57600080fd5b506101fe611569565b34801561047f57600080fd5b5061049361048e366004612491565b61156f565b60405161020b929190612b20565b3480156104ad57600080fd5b506101fe6104bc366004612491565b611593565b3480156104cd57600080fd5b506101e76104dc3660046124c0565b61178d565b3480156104ed57600080fd5b5061039a6104fc366004612461565b6119b3565b34801561050d57600080fd5b5061039a6119c0565b34801561052257600080fd5b506101e76105313660046124f6565b6119e4565b610549610544366004612280565b611c17565b60405161020b929190612656565b34801561056357600080fd5b5061039a611da7565b6000546001600160a01b0316331461059f5760405162461bcd60e51b8152600401610596906128c0565b60405180910390fd5b811561063a576001600160a01b0383161515806105b95750805b6105d55760405162461bcd60e51b8152600401610596906127da565b600080546040516001600160a01b03808716939216917f8be0079c531659141344cd1fd0a4f28419497f9722a3daafe3b4186f6b6457e091a3600080546001600160a01b0385166001600160a01b031991821617909155600180549091169055610656565b600180546001600160a01b0319166001600160a01b0385161790555b505050565b60035490565b6106696121b2565b61067284610e79565b600085815260066020908152604080832033845290915290208151919250906106c49064e8d4a51000906106b09087906001600160801b0316611db6565b816106b757fe5b6001840154919004611df3565b600182015580546106d59085611e40565b81556005805460009190879081106106e957fe5b6000918252602090912001546001600160a01b03169050801561076f578154604051634a2f4b4360e01b81526001600160a01b03831691634a2f4b439161073c918a9133918a9160009190600401612ae1565b600060405180830381600087803b15801561075657600080fd5b505af115801561076a573d6000803e3d6000fd5b505050505b61079d84866004898154811061078157fe5b6000918252602090912001546001600160a01b03169190611e63565b836001600160a01b031686336001600160a01b03167f8166bf25f8a2b7ed3c85049207da4358d16edbed977d23fa2ee6f0dde3ec2132886040516107e19190612ad8565b60405180910390a4505050505050565b600381815481106107fe57fe5b6000918252602090912001546001600160801b03811691506001600160401b03600160801b8204811691600160c01b90041683565b60085481565b6108416121b2565b61084a83610e79565b6000848152600660209081526040808320338452909152812082518154939450909264e8d4a510009161088691906001600160801b0316611db6565b8161088d57fe5b04905060006108b16108ac846001015484611df390919063ffffffff16565b611f51565b60018401839055905080156108f4576108f46001600160a01b037f0000000000000000000000000000000000000000000000000000000000000000168683611e63565b60006005878154811061090357fe5b6000918252602090912001546001600160a01b031690508015610988578354604051634a2f4b4360e01b81526001600160a01b03831691634a2f4b4391610955918b9133918c91899190600401612ae1565b600060405180830381600087803b15801561096f57600080fd5b505af1158015610983573d6000803e3d6000fd5b505050505b86336001600160a01b03167f71bab65ced2e5750775a0613be067df48ef06cf92a496ebf7663ae0660924954846040516109c29190612ad8565b60405180910390a350505050505050565b6000546001600160a01b031633146109fd5760405162461bcd60e51b8152600401610596906128c0565b600280546001600160a01b0319166001600160a01b0392909216919091179055565b60008281526006602090815260408083203384529091528120805482825560018201839055600580549293919286908110610a5657fe5b6000918252602090912001546001600160a01b031690508015610adb57604051634a2f4b4360e01b81526001600160a01b03821690634a2f4b4390610aa8908890339089906000908190600401612ae1565b600060405180830381600087803b158015610ac257600080fd5b505af1158015610ad6573d6000803e3d6000fd5b505050505b610aed84836004888154811061078157fe5b836001600160a01b031685336001600160a01b03167f2cac5e20e1541d836381527a43f651851e302817b71dc8e810284e69210c1c6b85604051610b319190612ad8565b60405180910390a45050505050565b6002546001600160a01b0316610b685760405162461bcd60e51b81526004016105969061298e565b600060048281548110610b7757fe5b60009182526020822001546040516370a0823160e01b81526001600160a01b03909116925082906370a0823190610bb29030906004016125c4565b60206040518083038186803b158015610bca57600080fd5b505afa158015610bde573d6000803e3d6000fd5b505050506040513d601f19601f82011682018060405250810190610c029190612479565b60025460405163095ea7b360e01b81529192506001600160a01b038085169263095ea7b392610c37921690859060040161263d565b602060405180830381600087803b158015610c5157600080fd5b505af1158015610c65573d6000803e3d6000fd5b505050506040513d601f19601f82011682018060405250810190610c899190612308565b5060025460405163ce5494bb60e01b81526000916001600160a01b03169063ce5494bb90610cbb9086906004016125c4565b602060405180830381600087803b158015610cd557600080fd5b505af1158015610ce9573d6000803e3d6000fd5b505050506040513d601f19601f82011682018060405250810190610d0d9190612324565b6040516370a0823160e01b81529091506001600160a01b038216906370a0823190610d3c9030906004016125c4565b60206040518083038186803b158015610d5457600080fd5b505afa158015610d68573d6000803e3d6000fd5b505050506040513d601f19601f82011682018060405250810190610d8c9190612479565b8214610daa5760405162461bcd60e51b815260040161059690612809565b8060048581548110610db857fe5b9060005260206000200160006101000a8154816001600160a01b0302191690836001600160a01b0316021790555050505050565b6001546001600160a01b0316338114610e175760405162461bcd60e51b8152600401610596906128f5565b600080546040516001600160a01b03808516939216917f8be0079c531659141344cd1fd0a4f28419497f9722a3daafe3b4186f6b6457e091a3600080546001600160a01b039092166001600160a01b0319928316179055600180549091169055565b610e816121b2565b60038281548110610e8e57fe5b60009182526020918290206040805160608101825292909101546001600160801b03811683526001600160401b03600160801b82048116948401859052600160c01b909104169082015291504211156110fe57600060048381548110610ef057fe5b6000918252602090912001546040516370a0823160e01b81526001600160a01b03909116906370a0823190610f299030906004016125c4565b60206040518083038186803b158015610f4157600080fd5b505afa158015610f55573d6000803e3d6000fd5b505050506040513d601f19601f82011682018060405250810190610f799190612479565b90508015611022576000610fa383602001516001600160401b031642611e4090919063ffffffff16565b90506000600854610fd685604001516001600160401b0316610fd060095486611db690919063ffffffff16565b90611db6565b81610fdd57fe5b04905061101461100384610ff68464e8d4a51000611db6565b81610ffd57fe5b04611f77565b85516001600160801b031690611fa0565b6001600160801b0316845250505b61102b42611fcf565b6001600160401b03166020830152600380548391908590811061104a57fe5b6000918252602091829020835191018054848401516040958601516001600160801b03199092166001600160801b039094169390931767ffffffffffffffff60801b1916600160801b6001600160401b0394851602176001600160c01b0316600160c01b93909116929092029190911790558301518351915185927f0fc9545022a542541ad085d091fb09a2ab36fee366a4576ab63714ea907ad353926110f49290918691612b2e565b60405180910390a2505b919050565b8060005b818110156111335761112a84848381811061111e57fe5b90506020020135610e79565b50600101611107565b50505050565b6000546001600160a01b031633146111635760405162461bcd60e51b8152600401610596906128c0565b60098190556040517fde89cb17ac7f58f94792b3e91e086ed85403819c24ceea882491f960ccb1a27890611198908390612ad8565b60405180910390a150565b600481815481106111b057fe5b6000918252602090912001546001600160a01b0316905081565b60076020526000908152604090205460ff1681565b60405163d505accf60e01b81526001600160a01b0389169063d505accf90611217908a908a908a908a908a908a908a906004016125fc565b600060405180830381600087803b15801561123157600080fd5b505af1158015611245573d6000803e3d6000fd5b505050505050505050505050565b6002546001600160a01b031681565b6000546001600160a01b0316331461128c5760405162461bcd60e51b8152600401610596906128c0565b6112cb836112c5600387815481106112a057fe5b60009182526020909120015460085490600160c01b90046001600160401b0316611e40565b90611ff8565b6008556112d783611fcf565b600385815481106112e457fe5b9060005260206000200160000160186101000a8154816001600160401b0302191690836001600160401b03160217905550801561135857816005858154811061132957fe5b9060005260206000200160006101000a8154816001600160a01b0302191690836001600160a01b031602179055505b80611384576005848154811061136a57fe5b6000918252602090912001546001600160a01b0316611386565b815b6001600160a01b0316847f95895a6ab1df54420d241b55243258a33e61b2194db66c1179ec521aae8e186585846040516113c1929190612b10565b60405180910390a350505050565b6000546001600160a01b031681565b6113e66121b2565b6113ef84610e79565b60008581526006602090815260408083206001600160a01b038716845290915290208054919250906114219085611ff8565b815581516114589064e8d4a51000906114449087906001600160801b0316611db6565b8161144b57fe5b600184015491900461201b565b816001018190555060006005868154811061146f57fe5b6000918252602090912001546001600160a01b0316905080156114f5578154604051634a2f4b4360e01b81526001600160a01b03831691634a2f4b43916114c2918a918991829160009190600401612ae1565b600060405180830381600087803b1580156114dc57600080fd5b505af11580156114f0573d6000803e3d6000fd5b505050505b61152533308760048a8154811061150857fe5b6000918252602090912001546001600160a01b0316929190612061565b836001600160a01b031686336001600160a01b03167f02d7e648dd130fc184d383e55bb126ac4c9c60e8f94bf05acdf557ba2d540b47886040516107e19190612ad8565b60095481565b60066020908152600092835260408084209091529082529020805460019091015482565b600061159d6121b2565b600384815481106115aa57fe5b600091825260208083206040805160608101825291909301546001600160801b0380821683526001600160401b03600160801b8304811684860152600160c01b90920490911682850152888552600683528385206001600160a01b038916865290925291832082516004805494965091949216928890811061162857fe5b6000918252602090912001546040516370a0823160e01b81526001600160a01b03909116906370a08231906116619030906004016125c4565b60206040518083038186803b15801561167957600080fd5b505afa15801561168d573d6000803e3d6000fd5b505050506040513d601f19601f820116820180604052508101906116b19190612479565b905083602001516001600160401b0316421180156116ce57508015155b156117545760006116f585602001516001600160401b031642611e4090919063ffffffff16565b9050600060085461172287604001516001600160401b0316610fd060095486611db690919063ffffffff16565b8161172957fe5b04905061174f8361173f8364e8d4a51000611db6565b8161174657fe5b86919004611ff8565b935050505b60018301548354611782916108ac9164e8d4a51000906117749087611db6565b8161177b57fe5b0490611df3565b979650505050505050565b6000546001600160a01b031633146117b75760405162461bcd60e51b8152600401610596906128c0565b6001600160a01b03821660009081526007602052604090205460ff16156117f05760405162461bcd60e51b81526004016105969061292a565b6008546117fd9084611ff8565b6008556004805460018181019092557f8a35acfbc15ff81a39ae7d344fd709f28e8600b4aa8c65c6b64bfe7fe36bd19b0180546001600160a01b038086166001600160a01b03199283161790925560058054938401815560009081527f036b6384b5eca791c62761152d0c79bb0604c104a5fb6f4eb0703f3154bb3db09093018054928516929091169190911790556040805160608101909152908152600390602081016118aa42611fcf565b6001600160401b031681526020016118c186611fcf565b6001600160401b0390811690915282546001818101855560009485526020808620855193018054828701516040978801518716600160c01b026001600160c01b0391909716600160801b0267ffffffffffffffff60801b196001600160801b039097166001600160801b031990931692909217959095161793909316939093179091556001600160a01b03808716808652600790935292909320805460ff19168417905560045491841692909161197791611e40565b7f81ee0f8c5c46e2cb41984886f77a84181724abb86c32a5f6de539b07509d45e5866040516119a69190612ad8565b60405180910390a4505050565b600581815481106111b057fe5b7f000000000000000000000000000000000000000000000000000000000000000081565b6119ec6121b2565b6119f584610e79565b6000858152600660209081526040808320338452909152812082518154939450909264e8d4a5100091611a3191906001600160801b0316611db6565b81611a3857fe5b0490506000611a576108ac846001015484611df390919063ffffffff16565b9050611a9264e8d4a51000611a8286600001516001600160801b031689611db690919063ffffffff16565b81611a8957fe5b84919004611df3565b60018401558254611aa39087611e40565b8355611ad96001600160a01b037f0000000000000000000000000000000000000000000000000000000000000000168683611e63565b600060058881548110611ae857fe5b6000918252602090912001546001600160a01b031690508015611b6d578354604051634a2f4b4360e01b81526001600160a01b03831691634a2f4b4391611b3a918c9133918c91899190600401612ae1565b600060405180830381600087803b158015611b5457600080fd5b505af1158015611b68573d6000803e3d6000fd5b505050505b611b7f868860048b8154811061078157fe5b856001600160a01b031688336001600160a01b03167f8166bf25f8a2b7ed3c85049207da4358d16edbed977d23fa2ee6f0dde3ec21328a604051611bc39190612ad8565b60405180910390a487336001600160a01b03167f71bab65ced2e5750775a0613be067df48ef06cf92a496ebf7663ae066092495484604051611c059190612ad8565b60405180910390a35050505050505050565b606080836001600160401b0381118015611c3057600080fd5b50604051908082528060200260200182016040528015611c5a578160200160208202803683370190505b509150836001600160401b0381118015611c7357600080fd5b50604051908082528060200260200182016040528015611ca757816020015b6060815260200190600190039081611c925790505b50905060005b84811015611d9e576000606030888885818110611cc657fe5b9050602002810190611cd89190612b58565b604051611ce6929190612598565b600060405180830381855af49150503d8060008114611d21576040519150601f19603f3d011682016040523d82523d6000602084013e611d26565b606091505b50915091508180611d35575085155b611d3e82612152565b90611d5c5760405162461bcd60e51b815260040161059691906126fb565b5081858481518110611d6a57fe5b60200260200101901515908115158152505080848481518110611d8957fe5b60209081029190910101525050600101611cad565b50935093915050565b6001546001600160a01b031681565b6000811580611dd157505080820282828281611dce57fe5b04145b611ded5760405162461bcd60e51b815260040161059690612a3e565b92915050565b6000818303818312801590611e085750838113155b80611e1d5750600083128015611e1d57508381135b611e395760405162461bcd60e51b8152600401610596906129c5565b9392505050565b80820382811115611ded5760405162461bcd60e51b81526004016105969061270e565b60006060846001600160a01b031663a9059cbb8585604051602401611e8992919061263d565b6040516020818303038152906040529060e01b6020820180516001600160e01b038381831617835250505050604051611ec291906125a8565b6000604051808303816000865af19150503d8060008114611eff576040519150601f19603f3d011682016040523d82523d6000602084013e611f04565b606091505b5091509150818015611f2e575080511580611f2e575080806020019051810190611f2e9190612308565b611f4a5760405162461bcd60e51b815260040161059690612762565b5050505050565b600080821215611f735760405162461bcd60e51b81526004016105969061273d565b5090565b60006001600160801b03821115611f735760405162461bcd60e51b815260040161059690612852565b8181016001600160801b038083169082161015611ded5760405162461bcd60e51b815260040161059690612889565b60006001600160401b03821115611f735760405162461bcd60e51b815260040161059690612957565b81810181811015611ded5760405162461bcd60e51b815260040161059690612889565b60008282018183128015906120305750838112155b80612045575060008312801561204557508381125b611e395760405162461bcd60e51b815260040161059690612799565b60006060856001600160a01b03166323b872dd868686604051602401612089939291906125d8565b6040516020818303038152906040529060e01b6020820180516001600160e01b0383818316178352505050506040516120c291906125a8565b6000604051808303816000865af19150503d80600081146120ff576040519150601f19603f3d011682016040523d82523d6000602084013e612104565b606091505b509150915081801561212e57508051158061212e57508080602001905181019061212e9190612308565b61214a5760405162461bcd60e51b815260040161059690612a09565b505050505050565b6060604482511015612198575060408051808201909152601d81527f5472616e73616374696f6e2072657665727465642073696c656e746c7900000060208201526110fe565b60048201915081806020019051810190611ded91906123c7565b604080516060810182526000808252602082018190529181019190915290565b60008083601f8401126121e3578182fd5b5081356001600160401b038111156121f9578182fd5b602083019150836020808302850101111561221357600080fd5b9250929050565b60006020828403121561222b578081fd5b8135611e3981612bc8565b60008060006060848603121561224a578182fd5b833561225581612bc8565b9250602084013561226581612be0565b9150604084013561227581612be0565b809150509250925092565b600080600060408486031215612294578283fd5b83356001600160401b038111156122a9578384fd5b6122b5868287016121d2565b909450925050602084013561227581612be0565b600080602083850312156122db578182fd5b82356001600160401b038111156122f0578283fd5b6122fc858286016121d2565b90969095509350505050565b600060208284031215612319578081fd5b8151611e3981612be0565b600060208284031215612335578081fd5b8151611e3981612bc8565b600080600080600080600080610100898b03121561235c578384fd5b883561236781612bc8565b9750602089013561237781612bc8565b9650604089013561238781612bc8565b9550606089013594506080890135935060a089013560ff811681146123aa578384fd5b979a969950949793969295929450505060c08201359160e0013590565b6000602082840312156123d8578081fd5b81516001600160401b03808211156123ee578283fd5b818401915084601f830112612401578283fd5b81518181111561240f578384fd5b604051601f8201601f19168101602001838111828210171561242f578586fd5b604052818152838201602001871015612446578485fd5b612457826020830160208701612b9c565b9695505050505050565b600060208284031215612472578081fd5b5035919050565b60006020828403121561248a578081fd5b5051919050565b600080604083850312156124a3578182fd5b8235915060208301356124b581612bc8565b809150509250929050565b6000806000606084860312156124d4578081fd5b8335925060208401356124e681612bc8565b9150604084013561227581612bc8565b60008060006060848603121561250a578081fd5b8335925060208401359150604084013561227581612bc8565b60008060008060808587031215612538578182fd5b8435935060208501359250604085013561255181612bc8565b9150606085013561256181612be0565b939692955090935050565b60008151808452612584816020860160208601612b9c565b601f01601f19169290920160200192915050565b6000828483379101908152919050565b600082516125ba818460208701612b9c565b9190910192915050565b6001600160a01b0391909116815260200190565b6001600160a01b039384168152919092166020820152604081019190915260600190565b6001600160a01b0397881681529590961660208601526040850193909352606084019190915260ff16608083015260a082015260c081019190915260e00190565b6001600160a01b03929092168252602082015260400190565b604080825283519082018190526000906020906060840190828701845b82811015612691578151151584529284019290840190600101612673565b505050838103828501528085516126a88184612ad8565b91508192508381028201848801865b838110156126e15785830385526126cf83835161256c565b948701949250908601906001016126b7565b50909998505050505050505050565b901515815260200190565b600060208252611e39602083018461256c565b602080825260159082015274426f72696e674d6174683a20556e646572666c6f7760581b604082015260600190565b6020808252600b908201526a0496e7465676572203c20360ac1b604082015260600190565b6020808252601c908201527f426f72696e6745524332303a205472616e73666572206661696c656400000000604082015260600190565b60208082526021908201527f5369676e6564536166654d6174683a206164646974696f6e206f766572666c6f6040820152607760f81b606082015260800190565b6020808252601590820152744f776e61626c653a207a65726f206164647265737360581b604082015260600190565b60208082526029908201527f4d61737465724368656656323a206d696772617465642062616c616e6365206d6040820152680eae6e840dac2e8c6d60bb1b606082015260800190565b6020808252601c908201527f426f72696e674d6174683a2075696e74313238204f766572666c6f7700000000604082015260600190565b60208082526018908201527f426f72696e674d6174683a20416464204f766572666c6f770000000000000000604082015260600190565b6020808252818101527f4f776e61626c653a2063616c6c6572206973206e6f7420746865206f776e6572604082015260600190565b6020808252818101527f4f776e61626c653a2063616c6c657220213d2070656e64696e67206f776e6572604082015260600190565b602080825260139082015272151bdad95b88185b1c9958591e481859191959606a1b604082015260600190565b6020808252601b908201527f426f72696e674d6174683a2075696e743634204f766572666c6f770000000000604082015260600190565b6020808252601d908201527f4d61737465724368656656323a206e6f206d69677261746f7220736574000000604082015260600190565b60208082526024908201527f5369676e6564536166654d6174683a207375627472616374696f6e206f766572604082015263666c6f7760e01b606082015260800190565b6020808252818101527f426f72696e6745524332303a205472616e7366657246726f6d206661696c6564604082015260600190565b60208082526018908201527f426f72696e674d6174683a204d756c204f766572666c6f770000000000000000604082015260600190565b81516001600160801b031681526020808301516001600160401b0390811691830191909152604092830151169181019190915260600190565b6001600160801b039390931683526001600160401b03918216602084015216604082015260600190565b90815260200190565b9485526001600160a01b0393841660208601529190921660408401526060830191909152608082015260a00190565b9182521515602082015260400190565b918252602082015260400190565b6001600160401b0393909316835260208301919091526001600160801b0316604082015260600190565b6000808335601e19843603018112612b6e578283fd5b8301803591506001600160401b03821115612b87578283fd5b60200191503681900382131561221357600080fd5b60005b83811015612bb7578181015183820152602001612b9f565b838111156111335750506000910152565b6001600160a01b0381168114612bdd57600080fd5b50565b8015158114612bdd57600080fdfea2646970667358221220c5eaf6e7802d56f58abd35e70c25f7ec30f254a49f011e5c03745fd9bb0edb8164736f6c634300060c0033",
  "devdoc": {
    "kind": "dev",
    "methods": {
      "add(uint256,address,address)": {
        "params": {
          "_lpToken": "Address of the LP ERC-20 token.",
          "_rewarder": "Address of the rewarder delegate.",
          "allocPoint": "AP of the new pool."
        }
      },
      "constructor": {
        "params": {
          "_reward": "The REWARD token contract address."
        }
      },
      "deposit(uint256,uint256,address)": {
        "params": {
          "amount": "LP token amount to deposit.",
          "pid": "The index of the pool. See `poolInfo`.",
          "to": "The receiver of `amount` deposit benefit."
        }
      },
      "emergencyWithdraw(uint256,address)": {
        "params": {
          "pid": "The index of the pool. See `poolInfo`.",
          "to": "Receiver of the LP tokens."
        }
      },
      "harvest(uint256,address)": {
        "params": {
          "pid": "The index of the pool. See `poolInfo`.",
          "to": "Receiver of REWARD rewards."
        }
      },
      "massUpdatePools(uint256[])": {
        "params": {
          "pids": "Pool IDs of all to be updated. Make sure to update all active pools."
        }
      },
      "migrate(uint256)": {
        "params": {
          "_pid": "The index of the pool. See `poolInfo`."
        }
      },
      "pendingReward(uint256,address)": {
        "params": {
          "_pid": "The index of the pool. See `poolInfo`.",
          "_user": "Address of user."
        },
        "returns": {
          "pending": "REWARD reward for a given user."
        }
      },
      "set(uint256,uint256,address,bool)": {
        "params": {
          "_allocPoint": "New AP of the pool.",
          "_pid": "The index of the pool. See `poolInfo`.",
          "_rewarder": "Address of the rewarder delegate.",
          "overwrite": "True if _rewarder should be `set`. Otherwise `_rewarder` is ignored."
        }
      },
      "setMigrator(address)": {
        "params": {
          "_migrator": "The contract address to set."
        }
      },
      "setRewardPerSecond(uint256)": {
        "params": {
          "_rewardPerSecond": "The amount of Reward to be distributed per second."
        }
      },
      "updatePool(uint256)": {
        "params": {
          "pid": "The index of the pool. See `poolInfo`."
        },
        "returns": {
          "pool": "Returns the pool that was updated."
        }
      },
      "withdraw(uint256,uint256,address)": {
        "params": {
          "amount": "LP token amount to withdraw.",
          "pid": "The index of the pool. See `poolInfo`.",
          "to": "Receiver of the LP tokens."
        }
      },
      "withdrawAndHarvest(uint256,uint256,address)": {
        "params": {
          "amount": "LP token amount to withdraw.",
          "pid": "The index of the pool. See `poolInfo`.",
          "to": "Receiver of the LP tokens and REWARD rewards."
        }
      }
    },
    "stateVariables": {
      "addedTokens": {
        "details": "Tokens added"
      },
      "totalAllocPoint": {
        "details": "Total allocation points. Must be the sum of all allocation points in all pools."
      }
    },
    "version": 1
  },
  "userdoc": {
    "kind": "user",
    "methods": {
      "REWARD()": {
        "notice": "Address of REWARD contract."
      },
      "add(uint256,address,address)": {
        "notice": "Add a new LP to the pool. Can only be called by the owner. DO NOT add the same LP token more than once. Rewards will be messed up if you do."
      },
      "deposit(uint256,uint256,address)": {
        "notice": "Deposit LP tokens to MCV2 for REWARD allocation."
      },
      "emergencyWithdraw(uint256,address)": {
        "notice": "Withdraw without caring about rewards. EMERGENCY ONLY."
      },
      "harvest(uint256,address)": {
        "notice": "Harvest proceeds for transaction sender to `to`."
      },
      "lpToken(uint256)": {
        "notice": "Address of the LP token for each MCV2 pool."
      },
      "massUpdatePools(uint256[])": {
        "notice": "Update reward variables for all pools. Be careful of gas spending!"
      },
      "migrate(uint256)": {
        "notice": "Migrate LP token to another LP contract through the `migrator` contract."
      },
      "pendingReward(uint256,address)": {
        "notice": "View function to see pending REWARD on frontend."
      },
      "poolInfo(uint256)": {
        "notice": "Info of each MCV2 pool."
      },
      "poolLength()": {
        "notice": "Returns the number of MCV2 pools."
      },
      "rewarder(uint256)": {
        "notice": "Address of each `IRewarder` contract in MCV2."
      },
      "set(uint256,uint256,address,bool)": {
        "notice": "Update the given pool's REWARD allocation point and `IRewarder` contract. Can only be called by the owner."
      },
      "setMigrator(address)": {
        "notice": "Set the `migrator` contract. Can only be called by the owner."
      },
      "setRewardPerSecond(uint256)": {
        "notice": "Sets the reward per second to be distributed. Can only be called by the owner."
      },
      "updatePool(uint256)": {
        "notice": "Update reward variables of the given pool."
      },
      "userInfo(uint256,address)": {
        "notice": "Info of each user that stakes LP tokens."
      },
      "withdraw(uint256,uint256,address)": {
        "notice": "Withdraw LP tokens from MCV2."
      },
      "withdrawAndHarvest(uint256,uint256,address)": {
        "notice": "Withdraw LP tokens from MCV2 and harvest proceeds for transaction sender to `to`."
      }
    },
    "notice": "The (older) MasterChef contract gives out a constant number of REWARD tokens per block. It is the only address with minting rights for REWARD. The idea for this MasterChef V2 (MCV2) contract is therefore to be the owner of a dummy token that is deposited into the MasterChef V1 (MCV1) contract. The allocation point for this pool on MCV1 is the total allocation point for all pools that receive double incentives.",
    "version": 1
  },
  "storageLayout": {
    "storage": [
      {
        "astId": 149,
        "contract": "contracts/MiniChefV2.sol:MiniChefV2",
        "label": "owner",
        "offset": 0,
        "slot": "0",
        "type": "t_address"
      },
      {
        "astId": 151,
        "contract": "contracts/MiniChefV2.sol:MiniChefV2",
        "label": "pendingOwner",
        "offset": 0,
        "slot": "1",
        "type": "t_address"
      },
      {
        "astId": 2142,
        "contract": "contracts/MiniChefV2.sol:MiniChefV2",
        "label": "migrator",
        "offset": 0,
        "slot": "2",
        "type": "t_contract(IMigratorChef)2108"
      },
      {
        "astId": 2146,
        "contract": "contracts/MiniChefV2.sol:MiniChefV2",
        "label": "poolInfo",
        "offset": 0,
        "slot": "3",
        "type": "t_array(t_struct(PoolInfo)2137_storage)dyn_storage"
      },
      {
        "astId": 2150,
        "contract": "contracts/MiniChefV2.sol:MiniChefV2",
        "label": "lpToken",
        "offset": 0,
        "slot": "4",
        "type": "t_array(t_contract(IERC20)337)dyn_storage"
      },
      {
        "astId": 2154,
        "contract": "contracts/MiniChefV2.sol:MiniChefV2",
        "label": "rewarder",
        "offset": 0,
        "slot": "5",
        "type": "t_array(t_contract(IRewarder)3346)dyn_storage"
      },
      {
        "astId": 2161,
        "contract": "contracts/MiniChefV2.sol:MiniChefV2",
        "label": "userInfo",
        "offset": 0,
        "slot": "6",
        "type": "t_mapping(t_uint256,t_mapping(t_address,t_struct(UserInfo)2130_storage))"
      },
      {
        "astId": 2166,
        "contract": "contracts/MiniChefV2.sol:MiniChefV2",
        "label": "addedTokens",
        "offset": 0,
        "slot": "7",
        "type": "t_mapping(t_address,t_bool)"
      },
      {
        "astId": 2169,
        "contract": "contracts/MiniChefV2.sol:MiniChefV2",
        "label": "totalAllocPoint",
        "offset": 0,
        "slot": "8",
        "type": "t_uint256"
      },
      {
        "astId": 2171,
        "contract": "contracts/MiniChefV2.sol:MiniChefV2",
        "label": "rewardPerSecond",
        "offset": 0,
        "slot": "9",
        "type": "t_uint256"
      }
    ],
    "types": {
      "t_address": {
        "encoding": "inplace",
        "label": "address",
        "numberOfBytes": "20"
      },
      "t_array(t_contract(IERC20)337)dyn_storage": {
        "base": "t_contract(IERC20)337",
        "encoding": "dynamic_array",
        "label": "contract IERC20[]",
        "numberOfBytes": "32"
      },
      "t_array(t_contract(IRewarder)3346)dyn_storage": {
        "base": "t_contract(IRewarder)3346",
        "encoding": "dynamic_array",
        "label": "contract IRewarder[]",
        "numberOfBytes": "32"
      },
      "t_array(t_struct(PoolInfo)2137_storage)dyn_storage": {
        "base": "t_struct(PoolInfo)2137_storage",
        "encoding": "dynamic_array",
        "label": "struct MiniChefV2.PoolInfo[]",
        "numberOfBytes": "32"
      },
      "t_bool": {
        "encoding": "inplace",
        "label": "bool",
        "numberOfBytes": "1"
      },
      "t_contract(IERC20)337": {
        "encoding": "inplace",
        "label": "contract IERC20",
        "numberOfBytes": "20"
      },
      "t_contract(IMigratorChef)2108": {
        "encoding": "inplace",
        "label": "contract IMigratorChef",
        "numberOfBytes": "20"
      },
      "t_contract(IRewarder)3346": {
        "encoding": "inplace",
        "label": "contract IRewarder",
        "numberOfBytes": "20"
      },
      "t_int256": {
        "encoding": "inplace",
        "label": "int256",
        "numberOfBytes": "32"
      },
      "t_mapping(t_address,t_bool)": {
        "encoding": "mapping",
        "key": "t_address",
        "label": "mapping(address => bool)",
        "numberOfBytes": "32",
        "value": "t_bool"
      },
      "t_mapping(t_address,t_struct(UserInfo)2130_storage)": {
        "encoding": "mapping",
        "key": "t_address",
        "label": "mapping(address => struct MiniChefV2.UserInfo)",
        "numberOfBytes": "32",
        "value": "t_struct(UserInfo)2130_storage"
      },
      "t_mapping(t_uint256,t_mapping(t_address,t_struct(UserInfo)2130_storage))": {
        "encoding": "mapping",
        "key": "t_uint256",
        "label": "mapping(uint256 => mapping(address => struct MiniChefV2.UserInfo))",
        "numberOfBytes": "32",
        "value": "t_mapping(t_address,t_struct(UserInfo)2130_storage)"
      },
      "t_struct(PoolInfo)2137_storage": {
        "encoding": "inplace",
        "label": "struct MiniChefV2.PoolInfo",
        "members": [
          {
            "astId": 2132,
            "contract": "contracts/MiniChefV2.sol:MiniChefV2",
            "label": "accRewardPerShare",
            "offset": 0,
            "slot": "0",
            "type": "t_uint128"
          },
          {
            "astId": 2134,
            "contract": "contracts/MiniChefV2.sol:MiniChefV2",
            "label": "lastRewardTime",
            "offset": 16,
            "slot": "0",
            "type": "t_uint64"
          },
          {
            "astId": 2136,
            "contract": "contracts/MiniChefV2.sol:MiniChefV2",
            "label": "allocPoint",
            "offset": 24,
            "slot": "0",
            "type": "t_uint64"
          }
        ],
        "numberOfBytes": "32"
      },
      "t_struct(UserInfo)2130_storage": {
        "encoding": "inplace",
        "label": "struct MiniChefV2.UserInfo",
        "members": [
          {
            "astId": 2127,
            "contract": "contracts/MiniChefV2.sol:MiniChefV2",
            "label": "amount",
            "offset": 0,
            "slot": "0",
            "type": "t_uint256"
          },
          {
            "astId": 2129,
            "contract": "contracts/MiniChefV2.sol:MiniChefV2",
            "label": "rewardDebt",
            "offset": 0,
            "slot": "1",
            "type": "t_int256"
          }
        ],
        "numberOfBytes": "64"
      },
      "t_uint128": {
        "encoding": "inplace",
        "label": "uint128",
        "numberOfBytes": "16"
      },
      "t_uint256": {
        "encoding": "inplace",
        "label": "uint256",
        "numberOfBytes": "32"
      },
      "t_uint64": {
        "encoding": "inplace",
        "label": "uint64",
        "numberOfBytes": "8"
      }
    }
  }
}