{
  "address": "0xe5C1c7f074Fc2898677F778330ed3C98f6b8b66e",
  "abi": [
    {
      "inputs": [
        {
          "internalType": "contract IMasterChef",
          "name": "_MASTER_CHEF",
          "type": "address"
        },
        {
          "internalType": "contract IERC20",
          "name": "_reward",
          "type": "address"
        },
        {
          "internalType": "uint256",
          "name": "_MASTER_PID",
          "type": "uint256"
        }
      ],
      "stateMutability": "nonpayable",
      "type": "constructor"
    },
    {
      "anonymous": false,
      "inputs": [
        {
          "indexed": true,
          "internalType": "address",
          "name": "user",
          "type": "address"
        },
        {
          "indexed": true,
          "internalType": "uint256",
          "name": "pid",
          "type": "uint256"
        },
        {
          "indexed": false,
          "internalType": "uint256",
          "name": "amount",
          "type": "uint256"
        },
        {
          "indexed": true,
          "internalType": "address",
          "name": "to",
          "type": "address"
        }
      ],
      "name": "Deposit",
      "type": "event"
    },
    {
      "anonymous": false,
      "inputs": [
        {
          "indexed": true,
          "internalType": "address",
          "name": "user",
          "type": "address"
        },
        {
          "indexed": true,
          "internalType": "uint256",
          "name": "pid",
          "type": "uint256"
        },
        {
          "indexed": false,
          "internalType": "uint256",
          "name": "amount",
          "type": "uint256"
        },
        {
          "indexed": true,
          "internalType": "address",
          "name": "to",
          "type": "address"
        }
      ],
      "name": "EmergencyWithdraw",
      "type": "event"
    },
    {
      "anonymous": false,
      "inputs": [
        {
          "indexed": true,
          "internalType": "address",
          "name": "user",
          "type": "address"
        },
        {
          "indexed": true,
          "internalType": "uint256",
          "name": "pid",
          "type": "uint256"
        },
        {
          "indexed": false,
          "internalType": "uint256",
          "name": "amount",
          "type": "uint256"
        }
      ],
      "name": "Harvest",
      "type": "event"
    },
    {
      "anonymous": false,
      "inputs": [],
      "name": "LogInit",
      "type": "event"
    },
    {
      "anonymous": false,
      "inputs": [
        {
          "indexed": true,
          "internalType": "uint256",
          "name": "pid",
          "type": "uint256"
        },
        {
          "indexed": false,
          "internalType": "uint256",
          "name": "allocPoint",
          "type": "uint256"
        },
        {
          "indexed": true,
          "internalType": "contract IERC20",
          "name": "lpToken",
          "type": "address"
        },
        {
          "indexed": true,
          "internalType": "contract IRewarder",
          "name": "rewarder",
          "type": "address"
        }
      ],
      "name": "LogPoolAddition",
      "type": "event"
    },
    {
      "anonymous": false,
      "inputs": [
        {
          "indexed": true,
          "internalType": "uint256",
          "name": "pid",
          "type": "uint256"
        },
        {
          "indexed": false,
          "internalType": "uint256",
          "name": "allocPoint",
          "type": "uint256"
        },
        {
          "indexed": true,
          "internalType": "contract IRewarder",
          "name": "rewarder",
          "type": "address"
        },
        {
          "indexed": false,
          "internalType": "bool",
          "name": "overwrite",
          "type": "bool"
        }
      ],
      "name": "LogSetPool",
      "type": "event"
    },
    {
      "anonymous": false,
      "inputs": [
        {
          "indexed": true,
          "internalType": "uint256",
          "name": "pid",
          "type": "uint256"
        },
        {
          "indexed": false,
          "internalType": "uint64",
          "name": "lastRewardBlock",
          "type": "uint64"
        },
        {
          "indexed": false,
          "internalType": "uint256",
          "name": "lpSupply",
          "type": "uint256"
        },
        {
          "indexed": false,
          "internalType": "uint256",
          "name": "accRewardPerShare",
          "type": "uint256"
        }
      ],
      "name": "LogUpdatePool",
      "type": "event"
    },
    {
      "anonymous": false,
      "inputs": [
        {
          "indexed": true,
          "internalType": "address",
          "name": "previousOwner",
          "type": "address"
        },
        {
          "indexed": true,
          "internalType": "address",
          "name": "newOwner",
          "type": "address"
        }
      ],
      "name": "OwnershipTransferred",
      "type": "event"
    },
    {
      "anonymous": false,
      "inputs": [
        {
          "indexed": true,
          "internalType": "address",
          "name": "user",
          "type": "address"
        },
        {
          "indexed": true,
          "internalType": "uint256",
          "name": "pid",
          "type": "uint256"
        },
        {
          "indexed": false,
          "internalType": "uint256",
          "name": "amount",
          "type": "uint256"
        },
        {
          "indexed": true,
          "internalType": "address",
          "name": "to",
          "type": "address"
        }
      ],
      "name": "Withdraw",
      "type": "event"
    },
    {
      "inputs": [],
      "name": "MASTER_CHEF",
      "outputs": [
        {
          "internalType": "contract IMasterChef",
          "name": "",
          "type": "address"
        }
      ],
      "stateMutability": "view",
      "type": "function"
    },
    {
      "inputs": [],
      "name": "MASTER_PID",
      "outputs": [
        {
          "internalType": "uint256",
          "name": "",
          "type": "uint256"
        }
      ],
      "stateMutability": "view",
      "type": "function"
    },
    {
      "inputs": [],
      "name": "REWARD",
      "outputs": [
        {
          "internalType": "contract IERC20",
          "name": "",
          "type": "address"
        }
      ],
      "stateMutability": "view",
      "type": "function"
    },
    {
      "inputs": [
        {
          "internalType": "uint256",
          "name": "allocPoint",
          "type": "uint256"
        },
        {
          "internalType": "contract IERC20",
          "name": "_lpToken",
          "type": "address"
        },
        {
          "internalType": "contract IRewarder",
          "name": "_rewarder",
          "type": "address"
        }
      ],
      "name": "add",
      "outputs": [],
      "stateMutability": "nonpayable",
      "type": "function"
    },
    {
      "inputs": [
        {
          "internalType": "bytes[]",
          "name": "calls",
          "type": "bytes[]"
        },
        {
          "internalType": "bool",
          "name": "revertOnFail",
          "type": "bool"
        }
      ],
      "name": "batch",
      "outputs": [
        {
          "internalType": "bool[]",
          "name": "successes",
          "type": "bool[]"
        },
        {
          "internalType": "bytes[]",
          "name": "results",
          "type": "bytes[]"
        }
      ],
      "stateMutability": "payable",
      "type": "function"
    },
    {
      "inputs": [],
      "name": "claimOwnership",
      "outputs": [],
      "stateMutability": "nonpayable",
      "type": "function"
    },
    {
      "inputs": [
        {
          "internalType": "uint256",
          "name": "pid",
          "type": "uint256"
        },
        {
          "internalType": "uint256",
          "name": "amount",
          "type": "uint256"
        },
        {
          "internalType": "address",
          "name": "to",
          "type": "address"
        }
      ],
      "name": "deposit",
      "outputs": [],
      "stateMutability": "nonpayable",
      "type": "function"
    },
    {
      "inputs": [
        {
          "internalType": "uint256",
          "name": "pid",
          "type": "uint256"
        },
        {
          "internalType": "address",
          "name": "to",
          "type": "address"
        }
      ],
      "name": "emergencyWithdraw",
      "outputs": [],
      "stateMutability": "nonpayable",
      "type": "function"
    },
    {
      "inputs": [
        {
          "internalType": "uint256",
          "name": "pid",
          "type": "uint256"
        },
        {
          "internalType": "address",
          "name": "to",
          "type": "address"
        }
      ],
      "name": "harvest",
      "outputs": [],
      "stateMutability": "nonpayable",
      "type": "function"
    },
    {
      "inputs": [],
      "name": "harvestFromMasterChef",
      "outputs": [],
      "stateMutability": "nonpayable",
      "type": "function"
    },
    {
      "inputs": [
        {
          "internalType": "contract IERC20",
          "name": "dummyToken",
          "type": "address"
        }
      ],
      "name": "init",
      "outputs": [],
      "stateMutability": "nonpayable",
      "type": "function"
    },
    {
      "inputs": [
        {
          "internalType": "uint256",
          "name": "",
          "type": "uint256"
        }
      ],
      "name": "lpToken",
      "outputs": [
        {
          "internalType": "contract IERC20",
          "name": "",
          "type": "address"
        }
      ],
      "stateMutability": "view",
      "type": "function"
    },
    {
      "inputs": [
        {
          "internalType": "uint256[]",
          "name": "pids",
          "type": "uint256[]"
        }
      ],
      "name": "massUpdatePools",
      "outputs": [],
      "stateMutability": "nonpayable",
      "type": "function"
    },
    {
      "inputs": [
        {
          "internalType": "uint256",
          "name": "_pid",
          "type": "uint256"
        }
      ],
      "name": "migrate",
      "outputs": [],
      "stateMutability": "nonpayable",
      "type": "function"
    },
    {
      "inputs": [],
      "name": "migrator",
      "outputs": [
        {
          "internalType": "contract IMigratorChef",
          "name": "",
          "type": "address"
        }
      ],
      "stateMutability": "view",
      "type": "function"
    },
    {
      "inputs": [],
      "name": "owner",
      "outputs": [
        {
          "internalType": "address",
          "name": "",
          "type": "address"
        }
      ],
      "stateMutability": "view",
      "type": "function"
    },
    {
      "inputs": [],
      "name": "pendingOwner",
      "outputs": [
        {
          "internalType": "address",
          "name": "",
          "type": "address"
        }
      ],
      "stateMutability": "view",
      "type": "function"
    },
    {
      "inputs": [
        {
          "internalType": "uint256",
          "name": "_pid",
          "type": "uint256"
        },
        {
          "internalType": "address",
          "name": "_user",
          "type": "address"
        }
      ],
      "name": "pendingReward",
      "outputs": [
        {
          "internalType": "uint256",
          "name": "pending",
          "type": "uint256"
        }
      ],
      "stateMutability": "view",
      "type": "function"
    },
    {
      "inputs": [
        {
          "internalType": "contract IERC20",
          "name": "token",
          "type": "address"
        },
        {
          "internalType": "address",
          "name": "from",
          "type": "address"
        },
        {
          "internalType": "address",
          "name": "to",
          "type": "address"
        },
        {
          "internalType": "uint256",
          "name": "amount",
          "type": "uint256"
        },
        {
          "internalType": "uint256",
          "name": "deadline",
          "type": "uint256"
        },
        {
          "internalType": "uint8",
          "name": "v",
          "type": "uint8"
        },
        {
          "internalType": "bytes32",
          "name": "r",
          "type": "bytes32"
        },
        {
          "internalType": "bytes32",
          "name": "s",
          "type": "bytes32"
        }
      ],
      "name": "permitToken",
      "outputs": [],
      "stateMutability": "nonpayable",
      "type": "function"
    },
    {
      "inputs": [
        {
          "internalType": "uint256",
          "name": "",
          "type": "uint256"
        }
      ],
      "name": "poolInfo",
      "outputs": [
        {
          "internalType": "uint128",
          "name": "accRewardPerShare",
          "type": "uint128"
        },
        {
          "internalType": "uint64",
          "name": "lastRewardBlock",
          "type": "uint64"
        },
        {
          "internalType": "uint64",
          "name": "allocPoint",
          "type": "uint64"
        }
      ],
      "stateMutability": "view",
      "type": "function"
    },
    {
      "inputs": [],
      "name": "poolLength",
      "outputs": [
        {
          "internalType": "uint256",
          "name": "pools",
          "type": "uint256"
        }
      ],
      "stateMutability": "view",
      "type": "function"
    },
    {
      "inputs": [],
      "name": "rewardPerBlock",
      "outputs": [
        {
          "internalType": "uint256",
          "name": "amount",
          "type": "uint256"
        }
      ],
      "stateMutability": "view",
      "type": "function"
    },
    {
      "inputs": [
        {
          "internalType": "uint256",
          "name": "",
          "type": "uint256"
        }
      ],
      "name": "rewarder",
      "outputs": [
        {
          "internalType": "contract IRewarder",
          "name": "",
          "type": "address"
        }
      ],
      "stateMutability": "view",
      "type": "function"
    },
    {
      "inputs": [
        {
          "internalType": "uint256",
          "name": "_pid",
          "type": "uint256"
        },
        {
          "internalType": "uint256",
          "name": "_allocPoint",
          "type": "uint256"
        },
        {
          "internalType": "contract IRewarder",
          "name": "_rewarder",
          "type": "address"
        },
        {
          "internalType": "bool",
          "name": "overwrite",
          "type": "bool"
        }
      ],
      "name": "set",
      "outputs": [],
      "stateMutability": "nonpayable",
      "type": "function"
    },
    {
      "inputs": [
        {
          "internalType": "contract IMigratorChef",
          "name": "_migrator",
          "type": "address"
        }
      ],
      "name": "setMigrator",
      "outputs": [],
      "stateMutability": "nonpayable",
      "type": "function"
    },
    {
      "inputs": [],
      "name": "totalAllocPoint",
      "outputs": [
        {
          "internalType": "uint256",
          "name": "",
          "type": "uint256"
        }
      ],
      "stateMutability": "view",
      "type": "function"
    },
    {
      "inputs": [
        {
          "internalType": "address",
          "name": "newOwner",
          "type": "address"
        },
        {
          "internalType": "bool",
          "name": "direct",
          "type": "bool"
        },
        {
          "internalType": "bool",
          "name": "renounce",
          "type": "bool"
        }
      ],
      "name": "transferOwnership",
      "outputs": [],
      "stateMutability": "nonpayable",
      "type": "function"
    },
    {
      "inputs": [
        {
          "internalType": "uint256",
          "name": "pid",
          "type": "uint256"
        }
      ],
      "name": "updatePool",
      "outputs": [
        {
          "components": [
            {
              "internalType": "uint128",
              "name": "accRewardPerShare",
              "type": "uint128"
            },
            {
              "internalType": "uint64",
              "name": "lastRewardBlock",
              "type": "uint64"
            },
            {
              "internalType": "uint64",
              "name": "allocPoint",
              "type": "uint64"
            }
          ],
          "internalType": "struct MasterChefV2.PoolInfo",
          "name": "pool",
          "type": "tuple"
        }
      ],
      "stateMutability": "nonpayable",
      "type": "function"
    },
    {
      "inputs": [
        {
          "internalType": "uint256",
          "name": "",
          "type": "uint256"
        },
        {
          "internalType": "address",
          "name": "",
          "type": "address"
        }
      ],
      "name": "userInfo",
      "outputs": [
        {
          "internalType": "uint256",
          "name": "amount",
          "type": "uint256"
        },
        {
          "internalType": "int256",
          "name": "rewardDebt",
          "type": "int256"
        }
      ],
      "stateMutability": "view",
      "type": "function"
    },
    {
      "inputs": [
        {
          "internalType": "uint256",
          "name": "pid",
          "type": "uint256"
        },
        {
          "internalType": "uint256",
          "name": "amount",
          "type": "uint256"
        },
        {
          "internalType": "address",
          "name": "to",
          "type": "address"
        }
      ],
      "name": "withdraw",
      "outputs": [],
      "stateMutability": "nonpayable",
      "type": "function"
    },
    {
      "inputs": [
        {
          "internalType": "uint256",
          "name": "pid",
          "type": "uint256"
        },
        {
          "internalType": "uint256",
          "name": "amount",
          "type": "uint256"
        },
        {
          "internalType": "address",
          "name": "to",
          "type": "address"
        }
      ],
      "name": "withdrawAndHarvest",
      "outputs": [],
      "stateMutability": "nonpayable",
      "type": "function"
    }
  ],
  "transactionHash": "0x8db5751cc9f0720a36544af71ef09e66fb76c8be260090b44e410d461b8c33f4",
  "args": [
    "0x0B295A3524c7835bb8a743e2f0D743614dA8C68A",
    "0x27f29138978365CCc4FbCDDC4431177273fC7ABC",
    "2"
  ],
  "solcInputHash": "823d00032d1bbea79db3b1c9297c243f",
  "bytecode": "0x60e06040523480156200001157600080fd5b50604051620031b7380380620031b7833981016040819052620000349162000097565b600080546001600160a01b0319163390811782556040519091907f8be0079c531659141344cd1fd0a4f28419497f9722a3daafe3b4186f6b6457e0908290a36001600160601b0319606093841b81166080529190921b1660a05260c052620000f7565b600080600060608486031215620000ac578283fd5b8351620000b981620000de565b6020850151909350620000cc81620000de565b80925050604084015190509250925092565b6001600160a01b0381168114620000f457600080fd5b50565b60805160601c60a05160601c60c05161305b6200015c60003980610b935280611106528061141e52806117325250806108f55280611d615280611e51525080610ad25280610b6652806110d9528061165b52806117055280612157525061305b6000f3fe6080604052600436106101d85760003560e01c806378ed5d1f1161010257806398969e8211610095578063d1abb90711610064578063d1abb90714610529578063d2423b5114610549578063e30c39781461056a578063edd8b1701461057f576101d8565b806398969e82146104b4578063ab7de098146104d4578063c346253d146104f4578063cab34c0814610514576101d8565b80638ae39cac116100d15780638ae39cac1461043c5780638da5cb5b146104515780638dbdbe6d1461046657806393f1a40b14610486576101d8565b806378ed5d1f146103ba5780637c516e94146103e75780637cd07e471461040757806388bba42f1461041c576101d8565b806323cf31181161017a5780634f70b15a116101495780634f70b15a1461034357806351eb05a61461035857806357a5b58c1461038557806361621aaa146103a5576101d8565b806323cf3118146102ce5780632f940c70146102ee578063454b06081461030e5780634e71e0c81461032e576101d8565b80631526fe27116101b65780631526fe271461024a57806317caf6f11461027957806318fccc761461028e57806319ab453c146102ae576101d8565b8063078dfbe7146101dd578063081e3eda146101ff5780630ad58d2f1461022a575b600080fd5b3480156101e957600080fd5b506101fd6101f83660046125dd565b610594565b005b34801561020b57600080fd5b50610214610683565b6040516102219190612ee9565b60405180910390f35b34801561023657600080fd5b506101fd6102453660046128fc565b610689565b34801561025657600080fd5b5061026a610265366004612867565b610819565b60405161022193929190612ebf565b34801561028557600080fd5b5061021461085b565b34801561029a57600080fd5b506101fd6102a9366004612897565b610861565b3480156102ba57600080fd5b506101fd6102c93660046126cb565b6109fb565b3480156102da57600080fd5b506101fd6102e93660046126cb565b610c1c565b3480156102fa57600080fd5b506101fd610309366004612897565b610c68565b34801561031a57600080fd5b506101fd610329366004612867565b610d89565b34801561033a57600080fd5b506101fd611035565b34801561034f57600080fd5b506101fd6110c2565b34801561036457600080fd5b50610378610373366004612867565b611165565b6040516102219190612e86565b34801561039157600080fd5b506101fd6103a0366004612670565b6113ec565b3480156103b157600080fd5b5061021461141c565b3480156103c657600080fd5b506103da6103d5366004612867565b611440565b60405161022191906129ca565b3480156103f357600080fd5b506101fd610402366004612703565b611467565b34801561041357600080fd5b506103da6114db565b34801561042857600080fd5b506101fd610437366004612929565b6114ea565b34801561044857600080fd5b50610214611657565b34801561045d57600080fd5b506103da6117cb565b34801561047257600080fd5b506101fd6104813660046128fc565b6117da565b34801561049257600080fd5b506104a66104a1366004612897565b611965565b604051610221929190612f31565b3480156104c057600080fd5b506102146104cf366004612897565b611989565b3480156104e057600080fd5b506101fd6104ef3660046128c6565b611b79565b34801561050057600080fd5b506103da61050f366004612867565b611d52565b34801561052057600080fd5b506103da611d5f565b34801561053557600080fd5b506101fd6105443660046128fc565b611d83565b61055c610557366004612627565b611fb6565b604051610221929190612a5c565b34801561057657600080fd5b506103da612146565b34801561058b57600080fd5b506103da612155565b6000546001600160a01b031633146105c75760405162461bcd60e51b81526004016105be90612cfe565b60405180910390fd5b8115610662576001600160a01b0383161515806105e15750805b6105fd5760405162461bcd60e51b81526004016105be90612c18565b600080546040516001600160a01b03808716939216917f8be0079c531659141344cd1fd0a4f28419497f9722a3daafe3b4186f6b6457e091a3600080546001600160a01b0385166001600160a01b03199182161790915560018054909116905561067e565b600180546001600160a01b0319166001600160a01b0385161790555b505050565b60035490565b610691612575565b61069a84611165565b600085815260066020908152604080832033845290915290208151919250906106ec9064e8d4a51000906106d89087906001600160801b0316612179565b816106df57fe5b60018401549190046121b6565b600182015580546106fd9085612203565b815560058054600091908790811061071157fe5b6000918252602090912001546001600160a01b031690508015610797578154604051634a2f4b4360e01b81526001600160a01b03831691634a2f4b4391610764918a9133918a9160009190600401612ef2565b600060405180830381600087803b15801561077e57600080fd5b505af1158015610792573d6000803e3d6000fd5b505050505b6107c58486600489815481106107a957fe5b6000918252602090912001546001600160a01b03169190612226565b836001600160a01b031686336001600160a01b03167f8166bf25f8a2b7ed3c85049207da4358d16edbed977d23fa2ee6f0dde3ec2132886040516108099190612ee9565b60405180910390a4505050505050565b6003818154811061082657fe5b6000918252602090912001546001600160801b03811691506001600160401b03600160801b8204811691600160c01b90041683565b60075481565b610869612575565b61087283611165565b6000848152600660209081526040808320338452909152812082518154939450909264e8d4a51000916108ae91906001600160801b0316612179565b816108b557fe5b04905060006108d96108d48460010154846121b690919063ffffffff16565b612314565b600184018390559050801561091c5761091c6001600160a01b037f0000000000000000000000000000000000000000000000000000000000000000168683612226565b60006005878154811061092b57fe5b6000918252602090912001546001600160a01b0316905080156109b0578354604051634a2f4b4360e01b81526001600160a01b03831691634a2f4b439161097d918b9133918c91899190600401612ef2565b600060405180830381600087803b15801561099757600080fd5b505af11580156109ab573d6000803e3d6000fd5b505050505b86336001600160a01b03167f71bab65ced2e5750775a0613be067df48ef06cf92a496ebf7663ae0660924954846040516109ea9190612ee9565b60405180910390a350505050505050565b6040516370a0823160e01b81526000906001600160a01b038316906370a0823190610a2a9033906004016129ca565b60206040518083038186803b158015610a4257600080fd5b505afa158015610a56573d6000803e3d6000fd5b505050506040513d601f19601f82011682018060405250810190610a7a919061287f565b905080610a995760405162461bcd60e51b81526004016105be90612b5d565b610aae6001600160a01b03831633308461233a565b60405163095ea7b360e01b81526001600160a01b0383169063095ea7b390610afc907f0000000000000000000000000000000000000000000000000000000000000000908590600401612a43565b602060405180830381600087803b158015610b1657600080fd5b505af1158015610b2a573d6000803e3d6000fd5b505050506040513d601f19601f82011682018060405250810190610b4e91906126af565b50604051631c57762b60e31b81526001600160a01b037f0000000000000000000000000000000000000000000000000000000000000000169063e2bbb15890610bbd907f0000000000000000000000000000000000000000000000000000000000000000908590600401612f31565b600060405180830381600087803b158015610bd757600080fd5b505af1158015610beb573d6000803e3d6000fd5b50506040517f98a9bd3b7a617581fc53b1e2992534e0e0cb5091c9d44aa1a7fc978f706caa83925060009150a15050565b6000546001600160a01b03163314610c465760405162461bcd60e51b81526004016105be90612cfe565b600280546001600160a01b0319166001600160a01b0392909216919091179055565b60008281526006602090815260408083203384529091528120805482825560018201839055600580549293919286908110610c9f57fe5b6000918252602090912001546001600160a01b031690508015610d2457604051634a2f4b4360e01b81526001600160a01b03821690634a2f4b4390610cf1908890339089906000908190600401612ef2565b600060405180830381600087803b158015610d0b57600080fd5b505af1158015610d1f573d6000803e3d6000fd5b505050505b610d368483600488815481106107a957fe5b836001600160a01b031685336001600160a01b03167f2cac5e20e1541d836381527a43f651851e302817b71dc8e810284e69210c1c6b85604051610d7a9190612ee9565b60405180910390a45050505050565b6002546001600160a01b0316610db15760405162461bcd60e51b81526004016105be90612d9f565b600060048281548110610dc057fe5b60009182526020822001546040516370a0823160e01b81526001600160a01b03909116925082906370a0823190610dfb9030906004016129ca565b60206040518083038186803b158015610e1357600080fd5b505afa158015610e27573d6000803e3d6000fd5b505050506040513d601f19601f82011682018060405250810190610e4b919061287f565b60025460405163095ea7b360e01b81529192506001600160a01b038085169263095ea7b392610e809216908590600401612a43565b602060405180830381600087803b158015610e9a57600080fd5b505af1158015610eae573d6000803e3d6000fd5b505050506040513d601f19601f82011682018060405250810190610ed291906126af565b5060025460405163ce5494bb60e01b81526000916001600160a01b03169063ce5494bb90610f049086906004016129ca565b602060405180830381600087803b158015610f1e57600080fd5b505af1158015610f32573d6000803e3d6000fd5b505050506040513d601f19601f82011682018060405250810190610f5691906126e7565b6040516370a0823160e01b81529091506001600160a01b038216906370a0823190610f859030906004016129ca565b60206040518083038186803b158015610f9d57600080fd5b505afa158015610fb1573d6000803e3d6000fd5b505050506040513d601f19601f82011682018060405250810190610fd5919061287f565b8214610ff35760405162461bcd60e51b81526004016105be90612c47565b806004858154811061100157fe5b9060005260206000200160006101000a8154816001600160a01b0302191690836001600160a01b0316021790555050505050565b6001546001600160a01b03163381146110605760405162461bcd60e51b81526004016105be90612d33565b600080546040516001600160a01b03808516939216917f8be0079c531659141344cd1fd0a4f28419497f9722a3daafe3b4186f6b6457e091a3600080546001600160a01b039092166001600160a01b0319928316179055600180549091169055565b604051631c57762b60e31b81526001600160a01b037f0000000000000000000000000000000000000000000000000000000000000000169063e2bbb15890611131907f000000000000000000000000000000000000000000000000000000000000000090600090600401612f31565b600060405180830381600087803b15801561114b57600080fd5b505af115801561115f573d6000803e3d6000fd5b50505050565b61116d612575565b6003828154811061117a57fe5b60009182526020918290206040805160608101825292909101546001600160801b03811683526001600160401b03600160801b82048116948401859052600160c01b909104169082015291504311156113e7576000600483815481106111dc57fe5b6000918252602090912001546040516370a0823160e01b81526001600160a01b03909116906370a08231906112159030906004016129ca565b60206040518083038186803b15801561122d57600080fd5b505afa158015611241573d6000803e3d6000fd5b505050506040513d601f19601f82011682018060405250810190611265919061287f565b9050801561130b57600061128f83602001516001600160401b03164361220390919063ffffffff16565b905060006007546112bf85604001516001600160401b03166112b96112b2611657565b8690612179565b90612179565b816112c657fe5b0490506112fd6112ec846112df8464e8d4a51000612179565b816112e657fe5b0461242b565b85516001600160801b031690612454565b6001600160801b0316845250505b61131443612483565b6001600160401b03166020830152600380548391908590811061133357fe5b6000918252602091829020835191018054848401516040958601516001600160801b03199092166001600160801b039094169390931767ffffffffffffffff60801b1916600160801b6001600160401b0394851602176001600160c01b0316600160c01b93909116929092029190911790558301518351915185927f0fc9545022a542541ad085d091fb09a2ab36fee366a4576ab63714ea907ad353926113dd9290918691612f3f565b60405180910390a2505b919050565b8060005b8181101561115f5761141384848381811061140757fe5b90506020020135611165565b506001016113f0565b7f000000000000000000000000000000000000000000000000000000000000000081565b6004818154811061144d57fe5b6000918252602090912001546001600160a01b0316905081565b60405163d505accf60e01b81526001600160a01b0389169063d505accf9061149f908a908a908a908a908a908a908a90600401612a02565b600060405180830381600087803b1580156114b957600080fd5b505af11580156114cd573d6000803e3d6000fd5b505050505050505050505050565b6002546001600160a01b031681565b6000546001600160a01b031633146115145760405162461bcd60e51b81526004016105be90612cfe565b6115538361154d6003878154811061152857fe5b60009182526020909120015460075490600160c01b90046001600160401b0316612203565b906124ac565b60075561155f83612483565b6003858154811061156c57fe5b9060005260206000200160000160186101000a8154816001600160401b0302191690836001600160401b0316021790555080156115e05781600585815481106115b157fe5b9060005260206000200160006101000a8154816001600160a01b0302191690836001600160a01b031602179055505b8061160c57600584815481106115f257fe5b6000918252602090912001546001600160a01b031661160e565b815b6001600160a01b0316847f95895a6ab1df54420d241b55243258a33e61b2194db66c1179ec521aae8e18658584604051611649929190612f21565b60405180910390a350505050565b60007f00000000000000000000000000000000000000000000000000000000000000006001600160a01b03166317caf6f16040518163ffffffff1660e01b815260040160206040518083038186803b1580156116b257600080fd5b505afa1580156116c6573d6000803e3d6000fd5b505050506040513d601f19601f820116820180604052508101906116ea919061287f565b604051631526fe2760e01b81526117be906001600160a01b037f00000000000000000000000000000000000000000000000000000000000000001690631526fe279061175a907f000000000000000000000000000000000000000000000000000000000000000090600401612ee9565b60806040518083038186803b15801561177257600080fd5b505afa158015611786573d6000803e3d6000fd5b505050506040513d601f19601f820116820180604052508101906117aa9190612815565b6020015168056bc75e2d6310000090612179565b816117c557fe5b04905090565b6000546001600160a01b031681565b6117e2612575565b6117eb84611165565b60008581526006602090815260408083206001600160a01b0387168452909152902080549192509061181d90856124ac565b815581516118549064e8d4a51000906118409087906001600160801b0316612179565b8161184757fe5b60018401549190046124cf565b816001018190555060006005868154811061186b57fe5b6000918252602090912001546001600160a01b0316905080156118f1578154604051634a2f4b4360e01b81526001600160a01b03831691634a2f4b43916118be918a918991829160009190600401612ef2565b600060405180830381600087803b1580156118d857600080fd5b505af11580156118ec573d6000803e3d6000fd5b505050505b61192133308760048a8154811061190457fe5b6000918252602090912001546001600160a01b031692919061233a565b836001600160a01b031686336001600160a01b03167f02d7e648dd130fc184d383e55bb126ac4c9c60e8f94bf05acdf557ba2d540b47886040516108099190612ee9565b60066020908152600092835260408084209091529082529020805460019091015482565b6000611993612575565b600384815481106119a057fe5b600091825260208083206040805160608101825291909301546001600160801b0380821683526001600160401b03600160801b8304811684860152600160c01b90920490911682850152888552600683528385206001600160a01b0389168652909252918320825160048054949650919492169288908110611a1e57fe5b6000918252602090912001546040516370a0823160e01b81526001600160a01b03909116906370a0823190611a579030906004016129ca565b60206040518083038186803b158015611a6f57600080fd5b505afa158015611a83573d6000803e3d6000fd5b505050506040513d601f19601f82011682018060405250810190611aa7919061287f565b905083602001516001600160401b031643118015611ac457508015155b15611b40576000611aeb85602001516001600160401b03164361220390919063ffffffff16565b90506000600754611b0e87604001516001600160401b03166112b96112b2611657565b81611b1557fe5b049050611b3b83611b2b8364e8d4a51000612179565b81611b3257fe5b869190046124ac565b935050505b60018301548354611b6e916108d49164e8d4a5100090611b609087612179565b81611b6757fe5b04906121b6565b979650505050505050565b6000546001600160a01b03163314611ba35760405162461bcd60e51b81526004016105be90612cfe565b6007544390611bb290856124ac565b6007556004805460018181019092557f8a35acfbc15ff81a39ae7d344fd709f28e8600b4aa8c65c6b64bfe7fe36bd19b0180546001600160a01b038087166001600160a01b03199283161790925560058054938401815560009081527f036b6384b5eca791c62761152d0c79bb0604c104a5fb6f4eb0703f3154bb3db0909301805492861692909116919091179055604080516060810190915290815260039060208101611c5f84612483565b6001600160401b03168152602001611c7687612483565b6001600160401b039081169091528254600181810185556000948552602094859020845192018054958501516040909501518416600160c01b026001600160c01b0395909416600160801b0267ffffffffffffffff60801b196001600160801b039094166001600160801b0319909716969096179290921694909417929092161790556004546001600160a01b038085169290861691611d1591612203565b7f81ee0f8c5c46e2cb41984886f77a84181724abb86c32a5f6de539b07509d45e587604051611d449190612ee9565b60405180910390a450505050565b6005818154811061144d57fe5b7f000000000000000000000000000000000000000000000000000000000000000081565b611d8b612575565b611d9484611165565b6000858152600660209081526040808320338452909152812082518154939450909264e8d4a5100091611dd091906001600160801b0316612179565b81611dd757fe5b0490506000611df66108d48460010154846121b690919063ffffffff16565b9050611e3164e8d4a51000611e2186600001516001600160801b03168961217990919063ffffffff16565b81611e2857fe5b849190046121b6565b60018401558254611e429087612203565b8355611e786001600160a01b037f0000000000000000000000000000000000000000000000000000000000000000168683612226565b600060058881548110611e8757fe5b6000918252602090912001546001600160a01b031690508015611f0c578354604051634a2f4b4360e01b81526001600160a01b03831691634a2f4b4391611ed9918c9133918c91899190600401612ef2565b600060405180830381600087803b158015611ef357600080fd5b505af1158015611f07573d6000803e3d6000fd5b505050505b611f1e868860048b815481106107a957fe5b856001600160a01b031688336001600160a01b03167f8166bf25f8a2b7ed3c85049207da4358d16edbed977d23fa2ee6f0dde3ec21328a604051611f629190612ee9565b60405180910390a487336001600160a01b03167f71bab65ced2e5750775a0613be067df48ef06cf92a496ebf7663ae066092495484604051611fa49190612ee9565b60405180910390a35050505050505050565b606080836001600160401b0381118015611fcf57600080fd5b50604051908082528060200260200182016040528015611ff9578160200160208202803683370190505b509150836001600160401b038111801561201257600080fd5b5060405190808252806020026020018201604052801561204657816020015b60608152602001906001900390816120315790505b50905060005b8481101561213d57600060603088888581811061206557fe5b90506020028101906120779190612f69565b60405161208592919061299e565b600060405180830381855af49150503d80600081146120c0576040519150601f19603f3d011682016040523d82523d6000602084013e6120c5565b606091505b509150915081806120d4575085155b6120dd82612515565b906120fb5760405162461bcd60e51b81526004016105be9190612af6565b508185848151811061210957fe5b6020026020010190151590811515815250508084848151811061212857fe5b6020908102919091010152505060010161204c565b50935093915050565b6001546001600160a01b031681565b7f000000000000000000000000000000000000000000000000000000000000000081565b60008115806121945750508082028282828161219157fe5b04145b6121b05760405162461bcd60e51b81526004016105be90612e4f565b92915050565b60008183038183128015906121cb5750838113155b806121e057506000831280156121e057508381135b6121fc5760405162461bcd60e51b81526004016105be90612dd6565b9392505050565b808203828111156121b05760405162461bcd60e51b81526004016105be90612b09565b60006060846001600160a01b031663a9059cbb858560405160240161224c929190612a43565b6040516020818303038152906040529060e01b6020820180516001600160e01b03838183161783525050505060405161228591906129ae565b6000604051808303816000865af19150503d80600081146122c2576040519150601f19603f3d011682016040523d82523d6000602084013e6122c7565b606091505b50915091508180156122f15750805115806122f15750808060200190518101906122f191906126af565b61230d5760405162461bcd60e51b81526004016105be90612ba0565b5050505050565b6000808212156123365760405162461bcd60e51b81526004016105be90612b38565b5090565b60006060856001600160a01b03166323b872dd868686604051602401612362939291906129de565b6040516020818303038152906040529060e01b6020820180516001600160e01b03838183161783525050505060405161239b91906129ae565b6000604051808303816000865af19150503d80600081146123d8576040519150601f19603f3d011682016040523d82523d6000602084013e6123dd565b606091505b509150915081801561240757508051158061240757508080602001905181019061240791906126af565b6124235760405162461bcd60e51b81526004016105be90612e1a565b505050505050565b60006001600160801b038211156123365760405162461bcd60e51b81526004016105be90612c90565b8181016001600160801b0380831690821610156121b05760405162461bcd60e51b81526004016105be90612cc7565b60006001600160401b038211156123365760405162461bcd60e51b81526004016105be90612d68565b818101818110156121b05760405162461bcd60e51b81526004016105be90612cc7565b60008282018183128015906124e45750838112155b806124f957506000831280156124f957508381125b6121fc5760405162461bcd60e51b81526004016105be90612bd7565b606060448251101561255b575060408051808201909152601d81527f5472616e73616374696f6e2072657665727465642073696c656e746c7900000060208201526113e7565b600482019150818060200190518101906121b0919061278a565b604080516060810182526000808252602082018190529181019190915290565b60008083601f8401126125a6578182fd5b5081356001600160401b038111156125bc578182fd5b60208301915083602080830285010111156125d657600080fd5b9250929050565b6000806000606084860312156125f1578283fd5b83356125fc81612fff565b9250602084013561260c81613017565b9150604084013561261c81613017565b809150509250925092565b60008060006040848603121561263b578283fd5b83356001600160401b03811115612650578384fd5b61265c86828701612595565b909450925050602084013561261c81613017565b60008060208385031215612682578182fd5b82356001600160401b03811115612697578283fd5b6126a385828601612595565b90969095509350505050565b6000602082840312156126c0578081fd5b81516121fc81613017565b6000602082840312156126dc578081fd5b81356121fc81612fff565b6000602082840312156126f8578081fd5b81516121fc81612fff565b600080600080600080600080610100898b03121561271f578384fd5b883561272a81612fff565b9750602089013561273a81612fff565b9650604089013561274a81612fff565b9550606089013594506080890135935060a089013560ff8116811461276d578384fd5b979a969950949793969295929450505060c08201359160e0013590565b60006020828403121561279b578081fd5b81516001600160401b03808211156127b1578283fd5b818401915084601f8301126127c4578283fd5b8151818111156127d2578384fd5b6127e5601f8201601f1916602001612fad565b91508082528560208285010111156127fb578384fd5b61280c816020840160208601612fd3565b50949350505050565b600060808284031215612826578081fd5b6128306080612fad565b825161283b81612fff565b808252506020830151602082015260408301516040820152606083015160608201528091505092915050565b600060208284031215612878578081fd5b5035919050565b600060208284031215612890578081fd5b5051919050565b600080604083850312156128a9578182fd5b8235915060208301356128bb81612fff565b809150509250929050565b6000806000606084860312156128da578081fd5b8335925060208401356128ec81612fff565b9150604084013561261c81612fff565b600080600060608486031215612910578081fd5b8335925060208401359150604084013561261c81612fff565b6000806000806080858703121561293e578182fd5b8435935060208501359250604085013561295781612fff565b9150606085013561296781613017565b939692955090935050565b6000815180845261298a816020860160208601612fd3565b601f01601f19169290920160200192915050565b6000828483379101908152919050565b600082516129c0818460208701612fd3565b9190910192915050565b6001600160a01b0391909116815260200190565b6001600160a01b039384168152919092166020820152604081019190915260600190565b6001600160a01b0397881681529590961660208601526040850193909352606084019190915260ff16608083015260a082015260c081019190915260e00190565b6001600160a01b03929092168252602082015260400190565b604080825283519082018190526000906020906060840190828701845b82811015612a97578151151584529284019290840190600101612a79565b50505083810382850152808551612aae8184612ee9565b91508192508381028201848801865b83811015612ae7578583038552612ad5838351612972565b94870194925090860190600101612abd565b50909998505050505050505050565b6000602082526121fc6020830184612972565b602080825260159082015274426f72696e674d6174683a20556e646572666c6f7760581b604082015260600190565b6020808252600b908201526a0496e7465676572203c20360ac1b604082015260600190565b60208082526023908201527f4d61737465724368656656323a2042616c616e6365206d75737420657863656560408201526206420360ec1b606082015260800190565b6020808252601c908201527f426f72696e6745524332303a205472616e73666572206661696c656400000000604082015260600190565b60208082526021908201527f5369676e6564536166654d6174683a206164646974696f6e206f766572666c6f6040820152607760f81b606082015260800190565b6020808252601590820152744f776e61626c653a207a65726f206164647265737360581b604082015260600190565b60208082526029908201527f4d61737465724368656656323a206d696772617465642062616c616e6365206d6040820152680eae6e840dac2e8c6d60bb1b606082015260800190565b6020808252601c908201527f426f72696e674d6174683a2075696e74313238204f766572666c6f7700000000604082015260600190565b60208082526018908201527f426f72696e674d6174683a20416464204f766572666c6f770000000000000000604082015260600190565b6020808252818101527f4f776e61626c653a2063616c6c6572206973206e6f7420746865206f776e6572604082015260600190565b6020808252818101527f4f776e61626c653a2063616c6c657220213d2070656e64696e67206f776e6572604082015260600190565b6020808252601b908201527f426f72696e674d6174683a2075696e743634204f766572666c6f770000000000604082015260600190565b6020808252601d908201527f4d61737465724368656656323a206e6f206d69677261746f7220736574000000604082015260600190565b60208082526024908201527f5369676e6564536166654d6174683a207375627472616374696f6e206f766572604082015263666c6f7760e01b606082015260800190565b6020808252818101527f426f72696e6745524332303a205472616e7366657246726f6d206661696c6564604082015260600190565b60208082526018908201527f426f72696e674d6174683a204d756c204f766572666c6f770000000000000000604082015260600190565b81516001600160801b031681526020808301516001600160401b0390811691830191909152604092830151169181019190915260600190565b6001600160801b039390931683526001600160401b03918216602084015216604082015260600190565b90815260200190565b9485526001600160a01b0393841660208601529190921660408401526060830191909152608082015260a00190565b9182521515602082015260400190565b918252602082015260400190565b6001600160401b0393909316835260208301919091526001600160801b0316604082015260600190565b6000808335601e19843603018112612f7f578283fd5b8301803591506001600160401b03821115612f98578283fd5b6020019150368190038213156125d657600080fd5b6040518181016001600160401b0381118282101715612fcb57600080fd5b604052919050565b60005b83811015612fee578181015183820152602001612fd6565b8381111561115f5750506000910152565b6001600160a01b038116811461301457600080fd5b50565b801515811461301457600080fdfea264697066735822122087fc0d9c151769dd96b2a8194c20defe1b1085b61ed02b6d631651292efba52164736f6c634300060c0033",
  "devdoc": {
    "kind": "dev",
    "methods": {
      "add(uint256,address,address)": {
        "params": {
          "_lpToken": "Address of the LP ERC-20 token.",
          "_rewarder": "Address of the rewarder delegate.",
          "allocPoint": "AP of the new pool."
        }
      },
      "constructor": {
        "params": {
          "_MASTER_CHEF": "The AMMSwap MCV1 contract address.",
          "_MASTER_PID": "The pool ID of the dummy token on the base MCV1 contract.",
          "_reward": "The REWARD token contract address."
        }
      },
      "deposit(uint256,uint256,address)": {
        "params": {
          "amount": "LP token amount to deposit.",
          "pid": "The index of the pool. See `poolInfo`.",
          "to": "The receiver of `amount` deposit benefit."
        }
      },
      "emergencyWithdraw(uint256,address)": {
        "params": {
          "pid": "The index of the pool. See `poolInfo`.",
          "to": "Receiver of the LP tokens."
        }
      },
      "harvest(uint256,address)": {
        "params": {
          "pid": "The index of the pool. See `poolInfo`.",
          "to": "Receiver of REWARD rewards."
        }
      },
      "init(address)": {
        "params": {
          "dummyToken": "The address of the ERC-20 token to deposit into MCV1."
        }
      },
      "massUpdatePools(uint256[])": {
        "params": {
          "pids": "Pool IDs of all to be updated. Make sure to update all active pools."
        }
      },
      "migrate(uint256)": {
        "params": {
          "_pid": "The index of the pool. See `poolInfo`."
        }
      },
      "pendingReward(uint256,address)": {
        "params": {
          "_pid": "The index of the pool. See `poolInfo`.",
          "_user": "Address of user."
        },
        "returns": {
          "pending": "REWARD reward for a given user."
        }
      },
      "set(uint256,uint256,address,bool)": {
        "params": {
          "_allocPoint": "New AP of the pool.",
          "_pid": "The index of the pool. See `poolInfo`.",
          "_rewarder": "Address of the rewarder delegate.",
          "overwrite": "True if _rewarder should be `set`. Otherwise `_rewarder` is ignored."
        }
      },
      "setMigrator(address)": {
        "params": {
          "_migrator": "The contract address to set."
        }
      },
      "updatePool(uint256)": {
        "params": {
          "pid": "The index of the pool. See `poolInfo`."
        },
        "returns": {
          "pool": "Returns the pool that was updated."
        }
      },
      "withdraw(uint256,uint256,address)": {
        "params": {
          "amount": "LP token amount to withdraw.",
          "pid": "The index of the pool. See `poolInfo`.",
          "to": "Receiver of the LP tokens."
        }
      },
      "withdrawAndHarvest(uint256,uint256,address)": {
        "params": {
          "amount": "LP token amount to withdraw.",
          "pid": "The index of the pool. See `poolInfo`.",
          "to": "Receiver of the LP tokens and REWARD rewards."
        }
      }
    },
    "stateVariables": {
      "totalAllocPoint": {
        "details": "Total allocation points. Must be the sum of all allocation points in all pools."
      }
    },
    "version": 1
  },
  "userdoc": {
    "kind": "user",
    "methods": {
      "MASTER_CHEF()": {
        "notice": "Address of MCV1 contract."
      },
      "MASTER_PID()": {
        "notice": "The index of MCV2 master pool in MCV1."
      },
      "REWARD()": {
        "notice": "Address of REWARD contract."
      },
      "add(uint256,address,address)": {
        "notice": "Add a new LP to the pool. Can only be called by the owner. DO NOT add the same LP token more than once. Rewards will be messed up if you do."
      },
      "deposit(uint256,uint256,address)": {
        "notice": "Deposit LP tokens to MCV2 for REWARD allocation."
      },
      "emergencyWithdraw(uint256,address)": {
        "notice": "Withdraw without caring about rewards. EMERGENCY ONLY."
      },
      "harvest(uint256,address)": {
        "notice": "Harvest proceeds for transaction sender to `to`."
      },
      "harvestFromMasterChef()": {
        "notice": "Harvests REWARD from `MASTER_CHEF` MCV1 and pool `MASTER_PID` to this MCV2 contract."
      },
      "init(address)": {
        "notice": "Deposits a dummy token to `MASTER_CHEF` MCV1. This is required because MCV1 holds the minting rights for REWARD. Any balance of transaction sender in `dummyToken` is transferred. The allocation point for the pool on MCV1 is the total allocation point for all pools that receive double incentives."
      },
      "lpToken(uint256)": {
        "notice": "Address of the LP token for each MCV2 pool."
      },
      "massUpdatePools(uint256[])": {
        "notice": "Update reward variables for all pools. Be careful of gas spending!"
      },
      "migrate(uint256)": {
        "notice": "Migrate LP token to another LP contract through the `migrator` contract."
      },
      "pendingReward(uint256,address)": {
        "notice": "View function to see pending REWARD on frontend."
      },
      "poolInfo(uint256)": {
        "notice": "Info of each MCV2 pool."
      },
      "poolLength()": {
        "notice": "Returns the number of MCV2 pools."
      },
      "rewardPerBlock()": {
        "notice": "Calculates and returns the `amount` of REWARD per block."
      },
      "rewarder(uint256)": {
        "notice": "Address of each `IRewarder` contract in MCV2."
      },
      "set(uint256,uint256,address,bool)": {
        "notice": "Update the given pool's REWARD allocation point and `IRewarder` contract. Can only be called by the owner."
      },
      "setMigrator(address)": {
        "notice": "Set the `migrator` contract. Can only be called by the owner."
      },
      "updatePool(uint256)": {
        "notice": "Update reward variables of the given pool."
      },
      "userInfo(uint256,address)": {
        "notice": "Info of each user that stakes LP tokens."
      },
      "withdraw(uint256,uint256,address)": {
        "notice": "Withdraw LP tokens from MCV2."
      },
      "withdrawAndHarvest(uint256,uint256,address)": {
        "notice": "Withdraw LP tokens from MCV2 and harvest proceeds for transaction sender to `to`."
      }
    },
    "notice": "The (older) MasterChef contract gives out a constant number of REWARD tokens per block. It is the only address with minting rights for REWARD. The idea for this MasterChef V2 (MCV2) contract is therefore to be the owner of a dummy token that is deposited into the MasterChef V1 (MCV1) contract. The allocation point for this pool on MCV1 is the total allocation point for all pools that receive double incentives.",
    "version": 1
  },
  "storageLayout": {
    "storage": [
      {
        "astId": 149,
        "contract": "contracts/MasterChefV2.sol:MasterChefV2",
        "label": "owner",
        "offset": 0,
        "slot": "0",
        "type": "t_address"
      },
      {
        "astId": 151,
        "contract": "contracts/MasterChefV2.sol:MasterChefV2",
        "label": "pendingOwner",
        "offset": 0,
        "slot": "1",
        "type": "t_address"
      },
      {
        "astId": 898,
        "contract": "contracts/MasterChefV2.sol:MasterChefV2",
        "label": "migrator",
        "offset": 0,
        "slot": "2",
        "type": "t_contract(IMigratorChef)858"
      },
      {
        "astId": 902,
        "contract": "contracts/MasterChefV2.sol:MasterChefV2",
        "label": "poolInfo",
        "offset": 0,
        "slot": "3",
        "type": "t_array(t_struct(PoolInfo)887_storage)dyn_storage"
      },
      {
        "astId": 906,
        "contract": "contracts/MasterChefV2.sol:MasterChefV2",
        "label": "lpToken",
        "offset": 0,
        "slot": "4",
        "type": "t_array(t_contract(IERC20)337)dyn_storage"
      },
      {
        "astId": 910,
        "contract": "contracts/MasterChefV2.sol:MasterChefV2",
        "label": "rewarder",
        "offset": 0,
        "slot": "5",
        "type": "t_array(t_contract(IRewarder)3346)dyn_storage"
      },
      {
        "astId": 917,
        "contract": "contracts/MasterChefV2.sol:MasterChefV2",
        "label": "userInfo",
        "offset": 0,
        "slot": "6",
        "type": "t_mapping(t_uint256,t_mapping(t_address,t_struct(UserInfo)880_storage))"
      },
      {
        "astId": 920,
        "contract": "contracts/MasterChefV2.sol:MasterChefV2",
        "label": "totalAllocPoint",
        "offset": 0,
        "slot": "7",
        "type": "t_uint256"
      }
    ],
    "types": {
      "t_address": {
        "encoding": "inplace",
        "label": "address",
        "numberOfBytes": "20"
      },
      "t_array(t_contract(IERC20)337)dyn_storage": {
        "base": "t_contract(IERC20)337",
        "encoding": "dynamic_array",
        "label": "contract IERC20[]",
        "numberOfBytes": "32"
      },
      "t_array(t_contract(IRewarder)3346)dyn_storage": {
        "base": "t_contract(IRewarder)3346",
        "encoding": "dynamic_array",
        "label": "contract IRewarder[]",
        "numberOfBytes": "32"
      },
      "t_array(t_struct(PoolInfo)887_storage)dyn_storage": {
        "base": "t_struct(PoolInfo)887_storage",
        "encoding": "dynamic_array",
        "label": "struct MasterChefV2.PoolInfo[]",
        "numberOfBytes": "32"
      },
      "t_contract(IERC20)337": {
        "encoding": "inplace",
        "label": "contract IERC20",
        "numberOfBytes": "20"
      },
      "t_contract(IMigratorChef)858": {
        "encoding": "inplace",
        "label": "contract IMigratorChef",
        "numberOfBytes": "20"
      },
      "t_contract(IRewarder)3346": {
        "encoding": "inplace",
        "label": "contract IRewarder",
        "numberOfBytes": "20"
      },
      "t_int256": {
        "encoding": "inplace",
        "label": "int256",
        "numberOfBytes": "32"
      },
      "t_mapping(t_address,t_struct(UserInfo)880_storage)": {
        "encoding": "mapping",
        "key": "t_address",
        "label": "mapping(address => struct MasterChefV2.UserInfo)",
        "numberOfBytes": "32",
        "value": "t_struct(UserInfo)880_storage"
      },
      "t_mapping(t_uint256,t_mapping(t_address,t_struct(UserInfo)880_storage))": {
        "encoding": "mapping",
        "key": "t_uint256",
        "label": "mapping(uint256 => mapping(address => struct MasterChefV2.UserInfo))",
        "numberOfBytes": "32",
        "value": "t_mapping(t_address,t_struct(UserInfo)880_storage)"
      },
      "t_struct(PoolInfo)887_storage": {
        "encoding": "inplace",
        "label": "struct MasterChefV2.PoolInfo",
        "members": [
          {
            "astId": 882,
            "contract": "contracts/MasterChefV2.sol:MasterChefV2",
            "label": "accRewardPerShare",
            "offset": 0,
            "slot": "0",
            "type": "t_uint128"
          },
          {
            "astId": 884,
            "contract": "contracts/MasterChefV2.sol:MasterChefV2",
            "label": "lastRewardBlock",
            "offset": 16,
            "slot": "0",
            "type": "t_uint64"
          },
          {
            "astId": 886,
            "contract": "contracts/MasterChefV2.sol:MasterChefV2",
            "label": "allocPoint",
            "offset": 24,
            "slot": "0",
            "type": "t_uint64"
          }
        ],
        "numberOfBytes": "32"
      },
      "t_struct(UserInfo)880_storage": {
        "encoding": "inplace",
        "label": "struct MasterChefV2.UserInfo",
        "members": [
          {
            "astId": 877,
            "contract": "contracts/MasterChefV2.sol:MasterChefV2",
            "label": "amount",
            "offset": 0,
            "slot": "0",
            "type": "t_uint256"
          },
          {
            "astId": 879,
            "contract": "contracts/MasterChefV2.sol:MasterChefV2",
            "label": "rewardDebt",
            "offset": 0,
            "slot": "1",
            "type": "t_int256"
          }
        ],
        "numberOfBytes": "64"
      },
      "t_uint128": {
        "encoding": "inplace",
        "label": "uint128",
        "numberOfBytes": "16"
      },
      "t_uint256": {
        "encoding": "inplace",
        "label": "uint256",
        "numberOfBytes": "32"
      },
      "t_uint64": {
        "encoding": "inplace",
        "label": "uint64",
        "numberOfBytes": "8"
      }
    }
  }
}